{
  "contract/AdminCertificateHelper.sol": {
    "AdminCertificateHelper": {
      "abi": [
        {
          "inputs": [
            {
              "internalType": "contract ICertVerifier",
              "name": "_certVerifier",
              "type": "address"
            },
            {
              "internalType": "bytes32",
              "name": "_authorizedSolutionHash",
              "type": "bytes32"
            }
          ],
          "stateMutability": "nonpayable",
          "type": "constructor"
        },
        {
          "inputs": [],
          "name": "ECDSAInvalidSignature",
          "type": "error"
        },
        {
          "inputs": [
            {
              "internalType": "uint256",
              "name": "length",
              "type": "uint256"
            }
          ],
          "name": "ECDSAInvalidSignatureLength",
          "type": "error"
        },
        {
          "inputs": [
            {
              "internalType": "bytes32",
              "name": "s",
              "type": "bytes32"
            }
          ],
          "name": "ECDSAInvalidSignatureS",
          "type": "error"
        },
        {
          "anonymous": false,
          "inputs": [
            {
              "indexed": true,
              "internalType": "contract ICertVerifier",
              "name": "oldCertVerifier",
              "type": "address"
            },
            {
              "indexed": true,
              "internalType": "contract ICertVerifier",
              "name": "newCertVerifier",
              "type": "address"
            }
          ],
          "name": "CertVerifierSet",
          "type": "event"
        },
        {
          "anonymous": false,
          "inputs": [
            {
              "indexed": true,
              "internalType": "address",
              "name": "from",
              "type": "address"
            },
            {
              "indexed": true,
              "internalType": "address",
              "name": "to",
              "type": "address"
            }
          ],
          "name": "OwnershipTransferRequested",
          "type": "event"
        },
        {
          "anonymous": false,
          "inputs": [
            {
              "indexed": true,
              "internalType": "address",
              "name": "from",
              "type": "address"
            },
            {
              "indexed": true,
              "internalType": "address",
              "name": "to",
              "type": "address"
            }
          ],
          "name": "OwnershipTransferred",
          "type": "event"
        },
        {
          "anonymous": false,
          "inputs": [
            {
              "indexed": true,
              "internalType": "address",
              "name": "oldAdmin",
              "type": "address"
            },
            {
              "indexed": true,
              "internalType": "address",
              "name": "newAdmin",
              "type": "address"
            },
            {
              "components": [
                {
                  "internalType": "bytes[]",
                  "name": "nonSerializedParts",
                  "type": "bytes[]"
                },
                {
                  "internalType": "bytes",
                  "name": "expirationDate",
                  "type": "bytes"
                },
                {
                  "internalType": "bytes",
                  "name": "ca",
                  "type": "bytes"
                },
                {
                  "internalType": "bytes32",
                  "name": "userData",
                  "type": "bytes32"
                },
                {
                  "internalType": "bytes",
                  "name": "publicKey",
                  "type": "bytes"
                },
                {
                  "internalType": "bytes",
                  "name": "serialNumber",
                  "type": "bytes"
                },
                {
                  "internalType": "bytes32",
                  "name": "mrEnclave",
                  "type": "bytes32"
                },
                {
                  "internalType": "bytes32",
                  "name": "mrSigner",
                  "type": "bytes32"
                },
                {
                  "internalType": "bytes",
                  "name": "signature",
                  "type": "bytes"
                }
              ],
              "indexed": false,
              "internalType": "struct ChunkedX509Cert[]",
              "name": "certsChain",
              "type": "tuple[]"
            },
            {
              "indexed": false,
              "internalType": "uint256",
              "name": "rootCertId",
              "type": "uint256"
            }
          ],
          "name": "SetAdmin",
          "type": "event"
        },
        {
          "anonymous": false,
          "inputs": [
            {
              "indexed": true,
              "internalType": "bytes32",
              "name": "oldAuthorizedSolutionHash",
              "type": "bytes32"
            },
            {
              "indexed": true,
              "internalType": "bytes32",
              "name": "newAuthorizedSolutionHash",
              "type": "bytes32"
            }
          ],
          "name": "SetAuthorizedSolutionHash",
          "type": "event"
        },
        {
          "inputs": [],
          "name": "acceptOwnership",
          "outputs": [],
          "stateMutability": "nonpayable",
          "type": "function"
        },
        {
          "inputs": [
            {
              "components": [
                {
                  "internalType": "bytes[]",
                  "name": "nonSerializedParts",
                  "type": "bytes[]"
                },
                {
                  "internalType": "bytes",
                  "name": "expirationDate",
                  "type": "bytes"
                },
                {
                  "internalType": "bytes",
                  "name": "ca",
                  "type": "bytes"
                },
                {
                  "internalType": "bytes32",
                  "name": "userData",
                  "type": "bytes32"
                },
                {
                  "internalType": "bytes",
                  "name": "publicKey",
                  "type": "bytes"
                },
                {
                  "internalType": "bytes",
                  "name": "serialNumber",
                  "type": "bytes"
                },
                {
                  "internalType": "bytes32",
                  "name": "mrEnclave",
                  "type": "bytes32"
                },
                {
                  "internalType": "bytes32",
                  "name": "mrSigner",
                  "type": "bytes32"
                },
                {
                  "internalType": "bytes",
                  "name": "signature",
                  "type": "bytes"
                }
              ],
              "internalType": "struct ChunkedX509Cert[]",
              "name": "_certsChain",
              "type": "tuple[]"
            },
            {
              "internalType": "uint256",
              "name": "_rootCertId",
              "type": "uint256"
            },
            {
              "internalType": "bytes",
              "name": "signature",
              "type": "bytes"
            }
          ],
          "name": "addAdmin",
          "outputs": [],
          "stateMutability": "nonpayable",
          "type": "function"
        },
        {
          "inputs": [],
          "name": "getAdminData",
          "outputs": [
            {
              "internalType": "address",
              "name": "_admin",
              "type": "address"
            },
            {
              "components": [
                {
                  "internalType": "bytes[]",
                  "name": "nonSerializedParts",
                  "type": "bytes[]"
                },
                {
                  "internalType": "bytes",
                  "name": "expirationDate",
                  "type": "bytes"
                },
                {
                  "internalType": "bytes",
                  "name": "ca",
                  "type": "bytes"
                },
                {
                  "internalType": "bytes32",
                  "name": "userData",
                  "type": "bytes32"
                },
                {
                  "internalType": "bytes",
                  "name": "publicKey",
                  "type": "bytes"
                },
                {
                  "internalType": "bytes",
                  "name": "serialNumber",
                  "type": "bytes"
                },
                {
                  "internalType": "bytes32",
                  "name": "mrEnclave",
                  "type": "bytes32"
                },
                {
                  "internalType": "bytes32",
                  "name": "mrSigner",
                  "type": "bytes32"
                },
                {
                  "internalType": "bytes",
                  "name": "signature",
                  "type": "bytes"
                }
              ],
              "internalType": "struct ChunkedX509Cert[]",
              "name": "_certsChain",
              "type": "tuple[]"
            },
            {
              "internalType": "uint256",
              "name": "_rootCertId",
              "type": "uint256"
            }
          ],
          "stateMutability": "view",
          "type": "function"
        },
        {
          "inputs": [],
          "name": "getAuthorizedSolutionHash",
          "outputs": [
            {
              "internalType": "bytes32",
              "name": "",
              "type": "bytes32"
            }
          ],
          "stateMutability": "view",
          "type": "function"
        },
        {
          "inputs": [],
          "name": "getCertVerifier",
          "outputs": [
            {
              "internalType": "contract ICertVerifier",
              "name": "",
              "type": "address"
            }
          ],
          "stateMutability": "view",
          "type": "function"
        },
        {
          "inputs": [],
          "name": "getSignatureNonce",
          "outputs": [
            {
              "internalType": "uint256",
              "name": "",
              "type": "uint256"
            }
          ],
          "stateMutability": "view",
          "type": "function"
        },
        {
          "inputs": [
            {
              "internalType": "address",
              "name": "caller",
              "type": "address"
            }
          ],
          "name": "isAdmin",
          "outputs": [
            {
              "internalType": "bool",
              "name": "",
              "type": "bool"
            }
          ],
          "stateMutability": "view",
          "type": "function"
        },
        {
          "inputs": [],
          "name": "owner",
          "outputs": [
            {
              "internalType": "address payable",
              "name": "",
              "type": "address"
            }
          ],
          "stateMutability": "view",
          "type": "function"
        },
        {
          "inputs": [
            {
              "internalType": "bytes32",
              "name": "_authorizedSolutionHash",
              "type": "bytes32"
            }
          ],
          "name": "setAuthorizedSolutionHash",
          "outputs": [],
          "stateMutability": "nonpayable",
          "type": "function"
        },
        {
          "inputs": [
            {
              "internalType": "contract ICertVerifier",
              "name": "_certVerifier",
              "type": "address"
            }
          ],
          "name": "setCertVerifier",
          "outputs": [],
          "stateMutability": "nonpayable",
          "type": "function"
        },
        {
          "inputs": [
            {
              "internalType": "address",
              "name": "_to",
              "type": "address"
            }
          ],
          "name": "transferOwnership",
          "outputs": [],
          "stateMutability": "nonpayable",
          "type": "function"
        }
      ],
      "evm": {
        "bytecode": {
          "linkReferences": {},
          "object": "60803461019a57601f611d4a38819003918201601f19168301916001600160401b0383118484101761019f57808492604094855283398101031261019a5780516001600160a01b038116919082900361019a5760200151600080546001600160a01b03191633179055908015610149576002546040519190816001600160a01b0382167fc8b1d729ea7c9a12c8ebcaf5bbb64f5a001f331261d068920947589040a2d954600080a36001600160a01b0319161760025581156100f957506007549080604051927fb134f848761a2f3e71de218780593a57ad2bd1ab2139bede1c142ca96c822599600080a3600755611b9490816101b68239f35b62461bcd60e51b815260206004820152602560248201527f417574686f72697a6564536f6c7574696f6e486173682063616e6e6f74206265604482015264207a65726f60d81b6064820152608490fd5b60405162461bcd60e51b815260206004820152602360248201527f6365727456657269666965722063616e6e6f74206265207a65726f206164647260448201526265737360e81b6064820152608490fd5b600080fd5b634e487b7160e01b600052604160045260246000fdfe6080604052600436101561001257600080fd5b60003560e01c806310b0258c146113a457806324d7806c1461134d5780633f96591f1461122057806340c7d18f146111ec5780636dd5be81146105c857806379ba5097146104e35780638da5cb5b146104af5780638de1ecb2146104915780638f7a844b1461015f578063c3713cad146101415763f2fde38b1461009557600080fd5b3461013c57602060031936011261013c5760043573ffffffffffffffffffffffffffffffffffffffff811680910361013c5773ffffffffffffffffffffffffffffffffffffffff600054166100eb8133146114c1565b817fffffffffffffffffffffffff000000000000000000000000000000000000000060015416176001557fed8889f560326eb138920d842192f0eb3dd22b4f139c87a2c57538e05bae1278600080a3005b600080fd5b3461013c57600060031936011261013c576020600754604051908152f35b3461013c57600060031936011261013c5773ffffffffffffffffffffffffffffffffffffffff60035416600554600454610198816118e1565b916101a6604051938461150c565b81835260208301809260046000527f8a35acfbc15ff81a39ae7d344fd709f28e8600b4aa8c65c6b64bfe7fe36bd19b916000905b8282106103725750505050604051938493606085019185526060602086015251809152608084019060808160051b86010193916000905b828210610225575050505060408301520390f35b9193949092957fffffffffffffffffffffffffffffffffffffffffffffffffffffffffffffff8090820301825285519061012081018251906101208352815180915261014083019060206101408260051b86010193019160005b82811061032b575050505061031a836020936101006102f46102e26102c66102b489988960019c01518782038b89015261149c565b6040870151868203604088015261149c565b606086015160608601526080860151858203608087015261149c565b60a085015184820360a086015261149c565b9260c081015160c084015260e081015160e084015201519061010081840391015261149c565b970192019201869594939192610211565b90919293602080610366837ffffffffffffffffffffffffffffffffffffffffffffffffffffffffffffffec08a60019603018752885161149c565b9601949301910161027f565b6040979495969751610120810181811067ffffffffffffffff82111761047b5760405284546103a0816118e1565b906103ae604051928361150c565b80825260208201876000526020600020906000905b83821061045e575050505060019282602092600994526103e48589016118f9565b838201526103f4600289016118f9565b60408201526003880154606082015261040f600489016118f9565b6080820152610420600589016118f9565b60a0820152600688015460c0820152600788015460e0820152610445600889016118f9565b61010082015281520194019101909296959493966101da565b60016020819261046d866118f9565b8152019301910190916103c3565b634e487b7160e01b600052604160045260246000fd5b3461013c57600060031936011261013c576020600654604051908152f35b3461013c57600060031936011261013c57602073ffffffffffffffffffffffffffffffffffffffff60005416604051908152f35b3461013c57600060031936011261013c5760015473ffffffffffffffffffffffffffffffffffffffff81163303610584577fffffffffffffffffffffffff00000000000000000000000000000000000000006000549133828416176000551660015573ffffffffffffffffffffffffffffffffffffffff3391167f8be0079c531659141344cd1fd0a4f28419497f9722a3daafe3b4186f6b6457e0600080a3005b606460405162461bcd60e51b815260206004820152601660248201527f4d7573742062652070726f706f736564206f776e6572000000000000000000006044820152fd5b3461013c57606060031936011261013c5760043567ffffffffffffffff811161013c573660238201121561013c57806004013567ffffffffffffffff811161013c576024820191602436918360051b01011161013c576044359160243567ffffffffffffffff841161013c573660238501121561013c5783600401359367ffffffffffffffff851161013c57366024868301011161013c5773ffffffffffffffffffffffffffffffffffffffff60025416602060405180927f4ff6338c00000000000000000000000000000000000000000000000000000000825281806106b4888b8b60048501611582565b03915afa8015611157576111bd575b5083156111a75760606106d68480611793565b013560075403611163576006549060206000610727604051838101903382524660408201523060608201528660808201526080815261071660a08261150c565b604051928392839251928391611479565b8101039060025afa156111575761075c9561074d610753926000519260243692016117c6565b906119b9565b909691966119f5565b60009473ffffffffffffffffffffffffffffffffffffffff8061079661078f6107858880611793565b608081019061180d565b36916117c6565b60208151910120169116036111135760001981146110ff5760010160065560035492337fffffffffffffffffffffffff00000000000000000000000000000000000000008516176003556801000000000000000081116110eb5760045481600455808210610fc1575b5060048552847f8a35acfbc15ff81a39ae7d344fd709f28e8600b4aa8c65c6b64bfe7fe36bd19b845b83831061088757505050907f2ff02e3194f5700f91a1e89169623293cdf4b5529c368e4810b3b8593203c8cc918160055561088160405192839273ffffffffffffffffffffffffffffffffffffffff3398169684611582565b0390a380f35b6108918187611793565b8035601e1982360301811215610fbd57810180359067ffffffffffffffff8211610fb9576020018160051b36038113610fb957680100000000000000008211610bd8578454828655808310610f8c575b5080858c5260208c20918c915b848310610e5f5750505050506001830161090b602083018361180d565b67ffffffffffffffff8111610c8c578b6109258454611840565b601f8111610e2f575b50918c601f8311600114610dca5761095c93909183610bec575b50506000198260011b9260031b1c19161790565b90555b60028301610970604083018361180d565b67ffffffffffffffff8111610c8c578b61098a8454611840565b601f8111610d9a575b50918c601f8311600114610d35576109c093909183610bec5750506000198260011b9260031b1c19161790565b90555b60608101356003840155600483016109de608083018361180d565b67ffffffffffffffff8111610c8c578b6109f88454611840565b601f8111610d05575b50918c601f8311600114610ca057610a2e93909183610bec5750506000198260011b9260031b1c19161790565b90555b60058301610a4260a083018361180d565b67ffffffffffffffff8111610c8c578b610a5c8454611840565b601f8111610c5c575b50918c601f8311600114610bf757610a9293909183610bec5750506000198260011b9260031b1c19161790565b90555b60c0810135600684015560e08101356007840155610abc600884019161010081019061180d565b9067ffffffffffffffff8211610bd857610ad68354611840565b601f8111610b9d575b508a908b601f8411600114610b3157836020946001979460099794610b179492610b265750506000198260011b9260031b1c19161790565b90555b01920192019190610828565b013590508f80610948565b50838c5260208c2091601f1984168d5b818110610b85575093600196936009969388938360209810610b6b575b505050811b019055610b1a565b60001960f88560031b161c199101351690558e8080610b5e565b91936020600181928787013581550195019201610b41565b610bc890848d5260208d20601f850160051c81019160208610610bce575b601f0160051c019061187a565b8b610adf565b9091508190610bbb565b60248b634e487b7160e01b81526041600452fd5b013590508d80610948565b9192601f19841685845260208420935b818110610c445750908460019594939210610c2a575b505050811b019055610a95565b60001960f88560031b161c199101351690558c8080610c1d565b91936020600181928787013581550195019201610c07565b60208286610c85945220601f840160051c81019160208510610bce57601f0160051c019061187a565b8b8d610a65565b60248c634e487b7160e01b81526041600452fd5b9192601f19841685845260208420935b818110610ced5750908460019594939210610cd3575b505050811b019055610a31565b60001960f88560031b161c199101351690558c8080610cc6565b91936020600181928787013581550195019201610cb0565b60208286610d2e945220601f840160051c81019160208510610bce57601f0160051c019061187a565b8b8d610a01565b9192601f19841685845260208420935b818110610d825750908460019594939210610d68575b505050811b0190556109c3565b60001960f88560031b161c199101351690558c8080610d5b565b91936020600181928787013581550195019201610d45565b60208286610dc3945220601f840160051c81019160208510610bce57601f0160051c019061187a565b8b8d610993565b9192601f19841685845260208420935b818110610e175750908460019594939210610dfd575b505050811b01905561095f565b60001960f88560031b161c199101351690558c8080610df0565b91936020600181928787013581550195019201610dda565b60208286610e58945220601f840160051c81019160208510610bce57601f0160051c019061187a565b8b8d61092e565b610e69818361180d565b9067ffffffffffffffff8211610f77578f90610e858754611840565b601f8111610f47575b5081601f8411600114610edd578360019592946020948796610ec39492610ed25750506000198260011b9260031b1c19161790565b87555b019401920191926108ee565b013590503880610948565b91601f19841688845260208420935b818110610f2f5750936020936001969387969383889510610f15575b505050811b018755610ec6565b60001960f88560031b161c19910135169055388080610f08565b91936020600181928787013581550195019201610eec565b610f719088845260208420601f860160051c81019160208710610bce57601f0160051c019061187a565b38610e8e565b5060248f634e487b7160e01b81526041600452fd5b858c528260208d2091820191015b818110610fa757506108e1565b80610fb3600192611891565b01610f9a565b8a80fd5b8980fd5b806009029060098204036110d75781600902906009820483036110c357600487527f8a35acfbc15ff81a39ae7d344fd709f28e8600b4aa8c65c6b64bfe7fe36bd19b01907f8a35acfbc15ff81a39ae7d344fd709f28e8600b4aa8c65c6b64bfe7fe36bd19b015b81811061103557506107ff565b805487825580611098575b5080611050600160099301611891565b61105c60028201611891565b87600382015561106e60048201611891565b61107a60058201611891565b87600682015587600782015561109260088201611891565b01611028565b81885260208820908101905b8181106110b15750611040565b806110bd600192611891565b016110a4565b602487634e487b7160e01b81526011600452fd5b602486634e487b7160e01b81526011600452fd5b602485634e487b7160e01b81526041600452fd5b602485634e487b7160e01b81526011600452fd5b606460405162461bcd60e51b815260206004820152601660248201527f496e76616c69642064617461207369676e6174757265000000000000000000006044820152fd5b6040513d6000823e3d90fd5b606460405162461bcd60e51b815260206004820152601860248201527f4f6e6c7920617574686f72697a656420736f6c7574696f6e00000000000000006044820152fd5b634e487b7160e01b600052603260045260246000fd5b6020813d6020116111e4575b816111d66020938361150c565b8101031261013c57516106c3565b3d91506111c9565b3461013c57600060031936011261013c57602073ffffffffffffffffffffffffffffffffffffffff60025416604051908152f35b3461013c57602060031936011261013c5760043573ffffffffffffffffffffffffffffffffffffffff811680910361013c5761127573ffffffffffffffffffffffffffffffffffffffff6000541633146114c1565b80156112e3577fffffffffffffffffffffffff00000000000000000000000000000000000000006002548273ffffffffffffffffffffffffffffffffffffffff82167fc8b1d729ea7c9a12c8ebcaf5bbb64f5a001f331261d068920947589040a2d954600080a31617600255005b608460405162461bcd60e51b815260206004820152602360248201527f6365727456657269666965722063616e6e6f74206265207a65726f206164647260448201527f65737300000000000000000000000000000000000000000000000000000000006064820152fd5b3461013c57602060031936011261013c5760043573ffffffffffffffffffffffffffffffffffffffff811680910361013c5760209073ffffffffffffffffffffffffffffffffffffffff6003541614604051908152f35b3461013c57602060031936011261013c576004356113db73ffffffffffffffffffffffffffffffffffffffff6000541633146114c1565b801561140f57806007547fb134f848761a2f3e71de218780593a57ad2bd1ab2139bede1c142ca96c822599600080a3600755005b608460405162461bcd60e51b815260206004820152602560248201527f417574686f72697a6564536f6c7574696f6e486173682063616e6e6f7420626560448201527f207a65726f0000000000000000000000000000000000000000000000000000006064820152fd5b60005b83811061148c5750506000910152565b818101518382015260200161147c565b90601f19601f6020936114ba81518092818752878088019101611479565b0116010190565b156114c857565b606460405162461bcd60e51b815260206004820152601660248201527f4f6e6c792063616c6c61626c65206279206f776e6572000000000000000000006044820152fd5b90601f601f19910116810190811067ffffffffffffffff82111761047b57604052565b601f8260209493601f19938186528686013760008582860101520116010190565b9035601e198236030181121561013c57016020813591019167ffffffffffffffff821161013c57813603831361013c57565b939291806040860160408752526060850160608260051b87010191836000907ffffffffffffffffffffffffffffffffffffffffffffffffffffffffffffffee1813603015b8383106115dc57505050505060209150930152565b90919293947fffffffffffffffffffffffffffffffffffffffffffffffffffffffffffffffa08a820301865286358281121561013c5783019061012081018235601e198436030181121561013c5783016020813591019167ffffffffffffffff821161013c578160051b90813603841361013c576101208552829052830161014090810192919084018260005b838110611741575050505050611732836020936117236117036116e86116c36116a8899861169b8a60019d0189611550565b908883038c8a015261152f565b6116b56040880188611550565b90878303604089015261152f565b606086013560608601526116da6080870187611550565b90868303608088015261152f565b6116f560a0860186611550565b9085830360a087015261152f565b9260c081013560c084015260e081013560e0840152610100810190611550565b9161010081850391015261152f565b980197960194930191906115c7565b9091929394602080611786837ffffffffffffffffffffffffffffffffffffffffffffffffffffffffffffffec08b600196030188526117808a88611550565b9061152f565b9701959401929101611669565b9035907ffffffffffffffffffffffffffffffffffffffffffffffffffffffffffffffee18136030182121561013c570190565b92919267ffffffffffffffff821161047b57604051916117f06020601f19601f840116018461150c565b82948184528183011161013c578281602093846000960137010152565b903590601e198136030182121561013c570180359067ffffffffffffffff821161013c5760200191813603831361013c57565b90600182811c92168015611870575b602083101461185a57565b634e487b7160e01b600052602260045260246000fd5b91607f169161184f565b818110611885575050565b6000815560010161187a565b61189b8154611840565b90816118a5575050565b81601f600093116001146118b85750555b565b818352602083206118d491601f0160051c81019060010161187a565b8082528160208120915555565b67ffffffffffffffff811161047b5760051b60200190565b906040519182600082549261190d84611840565b80845293600181169081156119795750600114611932575b506118b69250038361150c565b90506000929192526020600020906000915b81831061195d5750509060206118b69282010138611925565b6020919350806001915483858901015201910190918492611944565b602093506118b69592507fffffffffffffffffffffffffffffffffffffffffffffffffffffffffffffff0091501682840152151560051b82010138611925565b81519190604183036119ea576119e392506020820151906060604084015193015160001a90611ac8565b9192909190565b505060009160029190565b9190916004811015611ab25780611a0b57509050565b600060018203611a3f577ff645eedf0000000000000000000000000000000000000000000000000000000060005260046000fd5b5060028103611a7657827ffce698f70000000000000000000000000000000000000000000000000000000060005260045260246000fd5b9091600360009214611a86575050565b602492507fd78bce0c000000000000000000000000000000000000000000000000000000008252600452fd5b634e487b7160e01b600052602160045260246000fd5b91907f7fffffffffffffffffffffffffffffff5d576e7357a4501ddfe92f46681b20a08411611b52579160209360809260ff60009560405194855216868401526040830152606082015282805260015afa156111575760005173ffffffffffffffffffffffffffffffffffffffff811615611b465790600090600090565b50600090600190600090565b5050506000916003919056fea26469706673582212201671f1c43dc5c8346d69577e963c6aabefb6c83c0455b001df73dd691166b3ee64736f6c634300081e0033",
          "opcodes": "PUSH1 0x80 CALLVALUE PUSH2 0x19A JUMPI PUSH1 0x1F PUSH2 0x1D4A CODESIZE DUP2 SWAP1 SUB SWAP2 DUP3 ADD PUSH1 0x1F NOT AND DUP4 ADD SWAP2 PUSH1 0x1 PUSH1 0x1 PUSH1 0x40 SHL SUB DUP4 GT DUP5 DUP5 LT OR PUSH2 0x19F JUMPI DUP1 DUP5 SWAP3 PUSH1 0x40 SWAP5 DUP6 MSTORE DUP4 CODECOPY DUP2 ADD SUB SLT PUSH2 0x19A JUMPI DUP1 MLOAD PUSH1 0x1 PUSH1 0x1 PUSH1 0xA0 SHL SUB DUP2 AND SWAP2 SWAP1 DUP3 SWAP1 SUB PUSH2 0x19A JUMPI PUSH1 0x20 ADD MLOAD PUSH1 0x0 DUP1 SLOAD PUSH1 0x1 PUSH1 0x1 PUSH1 0xA0 SHL SUB NOT AND CALLER OR SWAP1 SSTORE SWAP1 DUP1 ISZERO PUSH2 0x149 JUMPI PUSH1 0x2 SLOAD PUSH1 0x40 MLOAD SWAP2 SWAP1 DUP2 PUSH1 0x1 PUSH1 0x1 PUSH1 0xA0 SHL SUB DUP3 AND PUSH32 0xC8B1D729EA7C9A12C8EBCAF5BBB64F5A001F331261D068920947589040A2D954 PUSH1 0x0 DUP1 LOG3 PUSH1 0x1 PUSH1 0x1 PUSH1 0xA0 SHL SUB NOT AND OR PUSH1 0x2 SSTORE DUP2 ISZERO PUSH2 0xF9 JUMPI POP PUSH1 0x7 SLOAD SWAP1 DUP1 PUSH1 0x40 MLOAD SWAP3 PUSH32 0xB134F848761A2F3E71DE218780593A57AD2BD1AB2139BEDE1C142CA96C822599 PUSH1 0x0 DUP1 LOG3 PUSH1 0x7 SSTORE PUSH2 0x1B94 SWAP1 DUP2 PUSH2 0x1B6 DUP3 CODECOPY RETURN JUMPDEST PUSH3 0x461BCD PUSH1 0xE5 SHL DUP2 MSTORE PUSH1 0x20 PUSH1 0x4 DUP3 ADD MSTORE PUSH1 0x25 PUSH1 0x24 DUP3 ADD MSTORE PUSH32 0x417574686F72697A6564536F6C7574696F6E486173682063616E6E6F74206265 PUSH1 0x44 DUP3 ADD MSTORE PUSH5 0x207A65726F PUSH1 0xD8 SHL PUSH1 0x64 DUP3 ADD MSTORE PUSH1 0x84 SWAP1 REVERT JUMPDEST PUSH1 0x40 MLOAD PUSH3 0x461BCD PUSH1 0xE5 SHL DUP2 MSTORE PUSH1 0x20 PUSH1 0x4 DUP3 ADD MSTORE PUSH1 0x23 PUSH1 0x24 DUP3 ADD MSTORE PUSH32 0x6365727456657269666965722063616E6E6F74206265207A65726F2061646472 PUSH1 0x44 DUP3 ADD MSTORE PUSH3 0x657373 PUSH1 0xE8 SHL PUSH1 0x64 DUP3 ADD MSTORE PUSH1 0x84 SWAP1 REVERT JUMPDEST PUSH1 0x0 DUP1 REVERT JUMPDEST PUSH4 0x4E487B71 PUSH1 0xE0 SHL PUSH1 0x0 MSTORE PUSH1 0x41 PUSH1 0x4 MSTORE PUSH1 0x24 PUSH1 0x0 REVERT INVALID PUSH1 0x80 PUSH1 0x40 MSTORE PUSH1 0x4 CALLDATASIZE LT ISZERO PUSH2 0x12 JUMPI PUSH1 0x0 DUP1 REVERT JUMPDEST PUSH1 0x0 CALLDATALOAD PUSH1 0xE0 SHR DUP1 PUSH4 0x10B0258C EQ PUSH2 0x13A4 JUMPI DUP1 PUSH4 0x24D7806C EQ PUSH2 0x134D JUMPI DUP1 PUSH4 0x3F96591F EQ PUSH2 0x1220 JUMPI DUP1 PUSH4 0x40C7D18F EQ PUSH2 0x11EC JUMPI DUP1 PUSH4 0x6DD5BE81 EQ PUSH2 0x5C8 JUMPI DUP1 PUSH4 0x79BA5097 EQ PUSH2 0x4E3 JUMPI DUP1 PUSH4 0x8DA5CB5B EQ PUSH2 0x4AF JUMPI DUP1 PUSH4 0x8DE1ECB2 EQ PUSH2 0x491 JUMPI DUP1 PUSH4 0x8F7A844B EQ PUSH2 0x15F JUMPI DUP1 PUSH4 0xC3713CAD EQ PUSH2 0x141 JUMPI PUSH4 0xF2FDE38B EQ PUSH2 0x95 JUMPI PUSH1 0x0 DUP1 REVERT JUMPDEST CALLVALUE PUSH2 0x13C JUMPI PUSH1 0x20 PUSH1 0x3 NOT CALLDATASIZE ADD SLT PUSH2 0x13C JUMPI PUSH1 0x4 CALLDATALOAD PUSH20 0xFFFFFFFFFFFFFFFFFFFFFFFFFFFFFFFFFFFFFFFF DUP2 AND DUP1 SWAP2 SUB PUSH2 0x13C JUMPI PUSH20 0xFFFFFFFFFFFFFFFFFFFFFFFFFFFFFFFFFFFFFFFF PUSH1 0x0 SLOAD AND PUSH2 0xEB DUP2 CALLER EQ PUSH2 0x14C1 JUMP JUMPDEST DUP2 PUSH32 0xFFFFFFFFFFFFFFFFFFFFFFFF0000000000000000000000000000000000000000 PUSH1 0x1 SLOAD AND OR PUSH1 0x1 SSTORE PUSH32 0xED8889F560326EB138920D842192F0EB3DD22B4F139C87A2C57538E05BAE1278 PUSH1 0x0 DUP1 LOG3 STOP JUMPDEST PUSH1 0x0 DUP1 REVERT JUMPDEST CALLVALUE PUSH2 0x13C JUMPI PUSH1 0x0 PUSH1 0x3 NOT CALLDATASIZE ADD SLT PUSH2 0x13C JUMPI PUSH1 0x20 PUSH1 0x7 SLOAD PUSH1 0x40 MLOAD SWAP1 DUP2 MSTORE RETURN JUMPDEST CALLVALUE PUSH2 0x13C JUMPI PUSH1 0x0 PUSH1 0x3 NOT CALLDATASIZE ADD SLT PUSH2 0x13C JUMPI PUSH20 0xFFFFFFFFFFFFFFFFFFFFFFFFFFFFFFFFFFFFFFFF PUSH1 0x3 SLOAD AND PUSH1 0x5 SLOAD PUSH1 0x4 SLOAD PUSH2 0x198 DUP2 PUSH2 0x18E1 JUMP JUMPDEST SWAP2 PUSH2 0x1A6 PUSH1 0x40 MLOAD SWAP4 DUP5 PUSH2 0x150C JUMP JUMPDEST DUP2 DUP4 MSTORE PUSH1 0x20 DUP4 ADD DUP1 SWAP3 PUSH1 0x4 PUSH1 0x0 MSTORE PUSH32 0x8A35ACFBC15FF81A39AE7D344FD709F28E8600B4AA8C65C6B64BFE7FE36BD19B SWAP2 PUSH1 0x0 SWAP1 JUMPDEST DUP3 DUP3 LT PUSH2 0x372 JUMPI POP POP POP POP PUSH1 0x40 MLOAD SWAP4 DUP5 SWAP4 PUSH1 0x60 DUP6 ADD SWAP2 DUP6 MSTORE PUSH1 0x60 PUSH1 0x20 DUP7 ADD MSTORE MLOAD DUP1 SWAP2 MSTORE PUSH1 0x80 DUP5 ADD SWAP1 PUSH1 0x80 DUP2 PUSH1 0x5 SHL DUP7 ADD ADD SWAP4 SWAP2 PUSH1 0x0 SWAP1 JUMPDEST DUP3 DUP3 LT PUSH2 0x225 JUMPI POP POP POP POP PUSH1 0x40 DUP4 ADD MSTORE SUB SWAP1 RETURN JUMPDEST SWAP2 SWAP4 SWAP5 SWAP1 SWAP3 SWAP6 PUSH32 0xFFFFFFFFFFFFFFFFFFFFFFFFFFFFFFFFFFFFFFFFFFFFFFFFFFFFFFFFFFFFFF80 SWAP1 DUP3 SUB ADD DUP3 MSTORE DUP6 MLOAD SWAP1 PUSH2 0x120 DUP2 ADD DUP3 MLOAD SWAP1 PUSH2 0x120 DUP4 MSTORE DUP2 MLOAD DUP1 SWAP2 MSTORE PUSH2 0x140 DUP4 ADD SWAP1 PUSH1 0x20 PUSH2 0x140 DUP3 PUSH1 0x5 SHL DUP7 ADD ADD SWAP4 ADD SWAP2 PUSH1 0x0 JUMPDEST DUP3 DUP2 LT PUSH2 0x32B JUMPI POP POP POP POP PUSH2 0x31A DUP4 PUSH1 0x20 SWAP4 PUSH2 0x100 PUSH2 0x2F4 PUSH2 0x2E2 PUSH2 0x2C6 PUSH2 0x2B4 DUP10 SWAP9 DUP10 PUSH1 0x1 SWAP13 ADD MLOAD DUP8 DUP3 SUB DUP12 DUP10 ADD MSTORE PUSH2 0x149C JUMP JUMPDEST PUSH1 0x40 DUP8 ADD MLOAD DUP7 DUP3 SUB PUSH1 0x40 DUP9 ADD MSTORE PUSH2 0x149C JUMP JUMPDEST PUSH1 0x60 DUP7 ADD MLOAD PUSH1 0x60 DUP7 ADD MSTORE PUSH1 0x80 DUP7 ADD MLOAD DUP6 DUP3 SUB PUSH1 0x80 DUP8 ADD MSTORE PUSH2 0x149C JUMP JUMPDEST PUSH1 0xA0 DUP6 ADD MLOAD DUP5 DUP3 SUB PUSH1 0xA0 DUP7 ADD MSTORE PUSH2 0x149C JUMP JUMPDEST SWAP3 PUSH1 0xC0 DUP2 ADD MLOAD PUSH1 0xC0 DUP5 ADD MSTORE PUSH1 0xE0 DUP2 ADD MLOAD PUSH1 0xE0 DUP5 ADD MSTORE ADD MLOAD SWAP1 PUSH2 0x100 DUP2 DUP5 SUB SWAP2 ADD MSTORE PUSH2 0x149C JUMP JUMPDEST SWAP8 ADD SWAP3 ADD SWAP3 ADD DUP7 SWAP6 SWAP5 SWAP4 SWAP2 SWAP3 PUSH2 0x211 JUMP JUMPDEST SWAP1 SWAP2 SWAP3 SWAP4 PUSH1 0x20 DUP1 PUSH2 0x366 DUP4 PUSH32 0xFFFFFFFFFFFFFFFFFFFFFFFFFFFFFFFFFFFFFFFFFFFFFFFFFFFFFFFFFFFFFEC0 DUP11 PUSH1 0x1 SWAP7 SUB ADD DUP8 MSTORE DUP9 MLOAD PUSH2 0x149C JUMP JUMPDEST SWAP7 ADD SWAP5 SWAP4 ADD SWAP2 ADD PUSH2 0x27F JUMP JUMPDEST PUSH1 0x40 SWAP8 SWAP5 SWAP6 SWAP7 SWAP8 MLOAD PUSH2 0x120 DUP2 ADD DUP2 DUP2 LT PUSH8 0xFFFFFFFFFFFFFFFF DUP3 GT OR PUSH2 0x47B JUMPI PUSH1 0x40 MSTORE DUP5 SLOAD PUSH2 0x3A0 DUP2 PUSH2 0x18E1 JUMP JUMPDEST SWAP1 PUSH2 0x3AE PUSH1 0x40 MLOAD SWAP3 DUP4 PUSH2 0x150C JUMP JUMPDEST DUP1 DUP3 MSTORE PUSH1 0x20 DUP3 ADD DUP8 PUSH1 0x0 MSTORE PUSH1 0x20 PUSH1 0x0 KECCAK256 SWAP1 PUSH1 0x0 SWAP1 JUMPDEST DUP4 DUP3 LT PUSH2 0x45E JUMPI POP POP POP POP PUSH1 0x1 SWAP3 DUP3 PUSH1 0x20 SWAP3 PUSH1 0x9 SWAP5 MSTORE PUSH2 0x3E4 DUP6 DUP10 ADD PUSH2 0x18F9 JUMP JUMPDEST DUP4 DUP3 ADD MSTORE PUSH2 0x3F4 PUSH1 0x2 DUP10 ADD PUSH2 0x18F9 JUMP JUMPDEST PUSH1 0x40 DUP3 ADD MSTORE PUSH1 0x3 DUP9 ADD SLOAD PUSH1 0x60 DUP3 ADD MSTORE PUSH2 0x40F PUSH1 0x4 DUP10 ADD PUSH2 0x18F9 JUMP JUMPDEST PUSH1 0x80 DUP3 ADD MSTORE PUSH2 0x420 PUSH1 0x5 DUP10 ADD PUSH2 0x18F9 JUMP JUMPDEST PUSH1 0xA0 DUP3 ADD MSTORE PUSH1 0x6 DUP9 ADD SLOAD PUSH1 0xC0 DUP3 ADD MSTORE PUSH1 0x7 DUP9 ADD SLOAD PUSH1 0xE0 DUP3 ADD MSTORE PUSH2 0x445 PUSH1 0x8 DUP10 ADD PUSH2 0x18F9 JUMP JUMPDEST PUSH2 0x100 DUP3 ADD MSTORE DUP2 MSTORE ADD SWAP5 ADD SWAP2 ADD SWAP1 SWAP3 SWAP7 SWAP6 SWAP5 SWAP4 SWAP7 PUSH2 0x1DA JUMP JUMPDEST PUSH1 0x1 PUSH1 0x20 DUP2 SWAP3 PUSH2 0x46D DUP7 PUSH2 0x18F9 JUMP JUMPDEST DUP2 MSTORE ADD SWAP4 ADD SWAP2 ADD SWAP1 SWAP2 PUSH2 0x3C3 JUMP JUMPDEST PUSH4 0x4E487B71 PUSH1 0xE0 SHL PUSH1 0x0 MSTORE PUSH1 0x41 PUSH1 0x4 MSTORE PUSH1 0x24 PUSH1 0x0 REVERT JUMPDEST CALLVALUE PUSH2 0x13C JUMPI PUSH1 0x0 PUSH1 0x3 NOT CALLDATASIZE ADD SLT PUSH2 0x13C JUMPI PUSH1 0x20 PUSH1 0x6 SLOAD PUSH1 0x40 MLOAD SWAP1 DUP2 MSTORE RETURN JUMPDEST CALLVALUE PUSH2 0x13C JUMPI PUSH1 0x0 PUSH1 0x3 NOT CALLDATASIZE ADD SLT PUSH2 0x13C JUMPI PUSH1 0x20 PUSH20 0xFFFFFFFFFFFFFFFFFFFFFFFFFFFFFFFFFFFFFFFF PUSH1 0x0 SLOAD AND PUSH1 0x40 MLOAD SWAP1 DUP2 MSTORE RETURN JUMPDEST CALLVALUE PUSH2 0x13C JUMPI PUSH1 0x0 PUSH1 0x3 NOT CALLDATASIZE ADD SLT PUSH2 0x13C JUMPI PUSH1 0x1 SLOAD PUSH20 0xFFFFFFFFFFFFFFFFFFFFFFFFFFFFFFFFFFFFFFFF DUP2 AND CALLER SUB PUSH2 0x584 JUMPI PUSH32 0xFFFFFFFFFFFFFFFFFFFFFFFF0000000000000000000000000000000000000000 PUSH1 0x0 SLOAD SWAP2 CALLER DUP3 DUP5 AND OR PUSH1 0x0 SSTORE AND PUSH1 0x1 SSTORE PUSH20 0xFFFFFFFFFFFFFFFFFFFFFFFFFFFFFFFFFFFFFFFF CALLER SWAP2 AND PUSH32 0x8BE0079C531659141344CD1FD0A4F28419497F9722A3DAAFE3B4186F6B6457E0 PUSH1 0x0 DUP1 LOG3 STOP JUMPDEST PUSH1 0x64 PUSH1 0x40 MLOAD PUSH3 0x461BCD PUSH1 0xE5 SHL DUP2 MSTORE PUSH1 0x20 PUSH1 0x4 DUP3 ADD MSTORE PUSH1 0x16 PUSH1 0x24 DUP3 ADD MSTORE PUSH32 0x4D7573742062652070726F706F736564206F776E657200000000000000000000 PUSH1 0x44 DUP3 ADD MSTORE REVERT JUMPDEST CALLVALUE PUSH2 0x13C JUMPI PUSH1 0x60 PUSH1 0x3 NOT CALLDATASIZE ADD SLT PUSH2 0x13C JUMPI PUSH1 0x4 CALLDATALOAD PUSH8 0xFFFFFFFFFFFFFFFF DUP2 GT PUSH2 0x13C JUMPI CALLDATASIZE PUSH1 0x23 DUP3 ADD SLT ISZERO PUSH2 0x13C JUMPI DUP1 PUSH1 0x4 ADD CALLDATALOAD PUSH8 0xFFFFFFFFFFFFFFFF DUP2 GT PUSH2 0x13C JUMPI PUSH1 0x24 DUP3 ADD SWAP2 PUSH1 0x24 CALLDATASIZE SWAP2 DUP4 PUSH1 0x5 SHL ADD ADD GT PUSH2 0x13C JUMPI PUSH1 0x44 CALLDATALOAD SWAP2 PUSH1 0x24 CALLDATALOAD PUSH8 0xFFFFFFFFFFFFFFFF DUP5 GT PUSH2 0x13C JUMPI CALLDATASIZE PUSH1 0x23 DUP6 ADD SLT ISZERO PUSH2 0x13C JUMPI DUP4 PUSH1 0x4 ADD CALLDATALOAD SWAP4 PUSH8 0xFFFFFFFFFFFFFFFF DUP6 GT PUSH2 0x13C JUMPI CALLDATASIZE PUSH1 0x24 DUP7 DUP4 ADD ADD GT PUSH2 0x13C JUMPI PUSH20 0xFFFFFFFFFFFFFFFFFFFFFFFFFFFFFFFFFFFFFFFF PUSH1 0x2 SLOAD AND PUSH1 0x20 PUSH1 0x40 MLOAD DUP1 SWAP3 PUSH32 0x4FF6338C00000000000000000000000000000000000000000000000000000000 DUP3 MSTORE DUP2 DUP1 PUSH2 0x6B4 DUP9 DUP12 DUP12 PUSH1 0x4 DUP6 ADD PUSH2 0x1582 JUMP JUMPDEST SUB SWAP2 GAS STATICCALL DUP1 ISZERO PUSH2 0x1157 JUMPI PUSH2 0x11BD JUMPI JUMPDEST POP DUP4 ISZERO PUSH2 0x11A7 JUMPI PUSH1 0x60 PUSH2 0x6D6 DUP5 DUP1 PUSH2 0x1793 JUMP JUMPDEST ADD CALLDATALOAD PUSH1 0x7 SLOAD SUB PUSH2 0x1163 JUMPI PUSH1 0x6 SLOAD SWAP1 PUSH1 0x20 PUSH1 0x0 PUSH2 0x727 PUSH1 0x40 MLOAD DUP4 DUP2 ADD SWAP1 CALLER DUP3 MSTORE CHAINID PUSH1 0x40 DUP3 ADD MSTORE ADDRESS PUSH1 0x60 DUP3 ADD MSTORE DUP7 PUSH1 0x80 DUP3 ADD MSTORE PUSH1 0x80 DUP2 MSTORE PUSH2 0x716 PUSH1 0xA0 DUP3 PUSH2 0x150C JUMP JUMPDEST PUSH1 0x40 MLOAD SWAP3 DUP4 SWAP3 DUP4 SWAP3 MLOAD SWAP3 DUP4 SWAP2 PUSH2 0x1479 JUMP JUMPDEST DUP2 ADD SUB SWAP1 PUSH1 0x2 GAS STATICCALL ISZERO PUSH2 0x1157 JUMPI PUSH2 0x75C SWAP6 PUSH2 0x74D PUSH2 0x753 SWAP3 PUSH1 0x0 MLOAD SWAP3 PUSH1 0x24 CALLDATASIZE SWAP3 ADD PUSH2 0x17C6 JUMP JUMPDEST SWAP1 PUSH2 0x19B9 JUMP JUMPDEST SWAP1 SWAP7 SWAP2 SWAP7 PUSH2 0x19F5 JUMP JUMPDEST PUSH1 0x0 SWAP5 PUSH20 0xFFFFFFFFFFFFFFFFFFFFFFFFFFFFFFFFFFFFFFFF DUP1 PUSH2 0x796 PUSH2 0x78F PUSH2 0x785 DUP9 DUP1 PUSH2 0x1793 JUMP JUMPDEST PUSH1 0x80 DUP2 ADD SWAP1 PUSH2 0x180D JUMP JUMPDEST CALLDATASIZE SWAP2 PUSH2 0x17C6 JUMP JUMPDEST PUSH1 0x20 DUP2 MLOAD SWAP2 ADD KECCAK256 AND SWAP2 AND SUB PUSH2 0x1113 JUMPI PUSH1 0x0 NOT DUP2 EQ PUSH2 0x10FF JUMPI PUSH1 0x1 ADD PUSH1 0x6 SSTORE PUSH1 0x3 SLOAD SWAP3 CALLER PUSH32 0xFFFFFFFFFFFFFFFFFFFFFFFF0000000000000000000000000000000000000000 DUP6 AND OR PUSH1 0x3 SSTORE PUSH9 0x10000000000000000 DUP2 GT PUSH2 0x10EB JUMPI PUSH1 0x4 SLOAD DUP2 PUSH1 0x4 SSTORE DUP1 DUP3 LT PUSH2 0xFC1 JUMPI JUMPDEST POP PUSH1 0x4 DUP6 MSTORE DUP5 PUSH32 0x8A35ACFBC15FF81A39AE7D344FD709F28E8600B4AA8C65C6B64BFE7FE36BD19B DUP5 JUMPDEST DUP4 DUP4 LT PUSH2 0x887 JUMPI POP POP POP SWAP1 PUSH32 0x2FF02E3194F5700F91A1E89169623293CDF4B5529C368E4810B3B8593203C8CC SWAP2 DUP2 PUSH1 0x5 SSTORE PUSH2 0x881 PUSH1 0x40 MLOAD SWAP3 DUP4 SWAP3 PUSH20 0xFFFFFFFFFFFFFFFFFFFFFFFFFFFFFFFFFFFFFFFF CALLER SWAP9 AND SWAP7 DUP5 PUSH2 0x1582 JUMP JUMPDEST SUB SWAP1 LOG3 DUP1 RETURN JUMPDEST PUSH2 0x891 DUP2 DUP8 PUSH2 0x1793 JUMP JUMPDEST DUP1 CALLDATALOAD PUSH1 0x1E NOT DUP3 CALLDATASIZE SUB ADD DUP2 SLT ISZERO PUSH2 0xFBD JUMPI DUP2 ADD DUP1 CALLDATALOAD SWAP1 PUSH8 0xFFFFFFFFFFFFFFFF DUP3 GT PUSH2 0xFB9 JUMPI PUSH1 0x20 ADD DUP2 PUSH1 0x5 SHL CALLDATASIZE SUB DUP2 SGT PUSH2 0xFB9 JUMPI PUSH9 0x10000000000000000 DUP3 GT PUSH2 0xBD8 JUMPI DUP5 SLOAD DUP3 DUP7 SSTORE DUP1 DUP4 LT PUSH2 0xF8C JUMPI JUMPDEST POP DUP1 DUP6 DUP13 MSTORE PUSH1 0x20 DUP13 KECCAK256 SWAP2 DUP13 SWAP2 JUMPDEST DUP5 DUP4 LT PUSH2 0xE5F JUMPI POP POP POP POP POP PUSH1 0x1 DUP4 ADD PUSH2 0x90B PUSH1 0x20 DUP4 ADD DUP4 PUSH2 0x180D JUMP JUMPDEST PUSH8 0xFFFFFFFFFFFFFFFF DUP2 GT PUSH2 0xC8C JUMPI DUP12 PUSH2 0x925 DUP5 SLOAD PUSH2 0x1840 JUMP JUMPDEST PUSH1 0x1F DUP2 GT PUSH2 0xE2F JUMPI JUMPDEST POP SWAP2 DUP13 PUSH1 0x1F DUP4 GT PUSH1 0x1 EQ PUSH2 0xDCA JUMPI PUSH2 0x95C SWAP4 SWAP1 SWAP2 DUP4 PUSH2 0xBEC JUMPI JUMPDEST POP POP PUSH1 0x0 NOT DUP3 PUSH1 0x1 SHL SWAP3 PUSH1 0x3 SHL SHR NOT AND OR SWAP1 JUMP JUMPDEST SWAP1 SSTORE JUMPDEST PUSH1 0x2 DUP4 ADD PUSH2 0x970 PUSH1 0x40 DUP4 ADD DUP4 PUSH2 0x180D JUMP JUMPDEST PUSH8 0xFFFFFFFFFFFFFFFF DUP2 GT PUSH2 0xC8C JUMPI DUP12 PUSH2 0x98A DUP5 SLOAD PUSH2 0x1840 JUMP JUMPDEST PUSH1 0x1F DUP2 GT PUSH2 0xD9A JUMPI JUMPDEST POP SWAP2 DUP13 PUSH1 0x1F DUP4 GT PUSH1 0x1 EQ PUSH2 0xD35 JUMPI PUSH2 0x9C0 SWAP4 SWAP1 SWAP2 DUP4 PUSH2 0xBEC JUMPI POP POP PUSH1 0x0 NOT DUP3 PUSH1 0x1 SHL SWAP3 PUSH1 0x3 SHL SHR NOT AND OR SWAP1 JUMP JUMPDEST SWAP1 SSTORE JUMPDEST PUSH1 0x60 DUP2 ADD CALLDATALOAD PUSH1 0x3 DUP5 ADD SSTORE PUSH1 0x4 DUP4 ADD PUSH2 0x9DE PUSH1 0x80 DUP4 ADD DUP4 PUSH2 0x180D JUMP JUMPDEST PUSH8 0xFFFFFFFFFFFFFFFF DUP2 GT PUSH2 0xC8C JUMPI DUP12 PUSH2 0x9F8 DUP5 SLOAD PUSH2 0x1840 JUMP JUMPDEST PUSH1 0x1F DUP2 GT PUSH2 0xD05 JUMPI JUMPDEST POP SWAP2 DUP13 PUSH1 0x1F DUP4 GT PUSH1 0x1 EQ PUSH2 0xCA0 JUMPI PUSH2 0xA2E SWAP4 SWAP1 SWAP2 DUP4 PUSH2 0xBEC JUMPI POP POP PUSH1 0x0 NOT DUP3 PUSH1 0x1 SHL SWAP3 PUSH1 0x3 SHL SHR NOT AND OR SWAP1 JUMP JUMPDEST SWAP1 SSTORE JUMPDEST PUSH1 0x5 DUP4 ADD PUSH2 0xA42 PUSH1 0xA0 DUP4 ADD DUP4 PUSH2 0x180D JUMP JUMPDEST PUSH8 0xFFFFFFFFFFFFFFFF DUP2 GT PUSH2 0xC8C JUMPI DUP12 PUSH2 0xA5C DUP5 SLOAD PUSH2 0x1840 JUMP JUMPDEST PUSH1 0x1F DUP2 GT PUSH2 0xC5C JUMPI JUMPDEST POP SWAP2 DUP13 PUSH1 0x1F DUP4 GT PUSH1 0x1 EQ PUSH2 0xBF7 JUMPI PUSH2 0xA92 SWAP4 SWAP1 SWAP2 DUP4 PUSH2 0xBEC JUMPI POP POP PUSH1 0x0 NOT DUP3 PUSH1 0x1 SHL SWAP3 PUSH1 0x3 SHL SHR NOT AND OR SWAP1 JUMP JUMPDEST SWAP1 SSTORE JUMPDEST PUSH1 0xC0 DUP2 ADD CALLDATALOAD PUSH1 0x6 DUP5 ADD SSTORE PUSH1 0xE0 DUP2 ADD CALLDATALOAD PUSH1 0x7 DUP5 ADD SSTORE PUSH2 0xABC PUSH1 0x8 DUP5 ADD SWAP2 PUSH2 0x100 DUP2 ADD SWAP1 PUSH2 0x180D JUMP JUMPDEST SWAP1 PUSH8 0xFFFFFFFFFFFFFFFF DUP3 GT PUSH2 0xBD8 JUMPI PUSH2 0xAD6 DUP4 SLOAD PUSH2 0x1840 JUMP JUMPDEST PUSH1 0x1F DUP2 GT PUSH2 0xB9D JUMPI JUMPDEST POP DUP11 SWAP1 DUP12 PUSH1 0x1F DUP5 GT PUSH1 0x1 EQ PUSH2 0xB31 JUMPI DUP4 PUSH1 0x20 SWAP5 PUSH1 0x1 SWAP8 SWAP5 PUSH1 0x9 SWAP8 SWAP5 PUSH2 0xB17 SWAP5 SWAP3 PUSH2 0xB26 JUMPI POP POP PUSH1 0x0 NOT DUP3 PUSH1 0x1 SHL SWAP3 PUSH1 0x3 SHL SHR NOT AND OR SWAP1 JUMP JUMPDEST SWAP1 SSTORE JUMPDEST ADD SWAP3 ADD SWAP3 ADD SWAP2 SWAP1 PUSH2 0x828 JUMP JUMPDEST ADD CALLDATALOAD SWAP1 POP DUP16 DUP1 PUSH2 0x948 JUMP JUMPDEST POP DUP4 DUP13 MSTORE PUSH1 0x20 DUP13 KECCAK256 SWAP2 PUSH1 0x1F NOT DUP5 AND DUP14 JUMPDEST DUP2 DUP2 LT PUSH2 0xB85 JUMPI POP SWAP4 PUSH1 0x1 SWAP7 SWAP4 PUSH1 0x9 SWAP7 SWAP4 DUP9 SWAP4 DUP4 PUSH1 0x20 SWAP9 LT PUSH2 0xB6B JUMPI JUMPDEST POP POP POP DUP2 SHL ADD SWAP1 SSTORE PUSH2 0xB1A JUMP JUMPDEST PUSH1 0x0 NOT PUSH1 0xF8 DUP6 PUSH1 0x3 SHL AND SHR NOT SWAP2 ADD CALLDATALOAD AND SWAP1 SSTORE DUP15 DUP1 DUP1 PUSH2 0xB5E JUMP JUMPDEST SWAP2 SWAP4 PUSH1 0x20 PUSH1 0x1 DUP2 SWAP3 DUP8 DUP8 ADD CALLDATALOAD DUP2 SSTORE ADD SWAP6 ADD SWAP3 ADD PUSH2 0xB41 JUMP JUMPDEST PUSH2 0xBC8 SWAP1 DUP5 DUP14 MSTORE PUSH1 0x20 DUP14 KECCAK256 PUSH1 0x1F DUP6 ADD PUSH1 0x5 SHR DUP2 ADD SWAP2 PUSH1 0x20 DUP7 LT PUSH2 0xBCE JUMPI JUMPDEST PUSH1 0x1F ADD PUSH1 0x5 SHR ADD SWAP1 PUSH2 0x187A JUMP JUMPDEST DUP12 PUSH2 0xADF JUMP JUMPDEST SWAP1 SWAP2 POP DUP2 SWAP1 PUSH2 0xBBB JUMP JUMPDEST PUSH1 0x24 DUP12 PUSH4 0x4E487B71 PUSH1 0xE0 SHL DUP2 MSTORE PUSH1 0x41 PUSH1 0x4 MSTORE REVERT JUMPDEST ADD CALLDATALOAD SWAP1 POP DUP14 DUP1 PUSH2 0x948 JUMP JUMPDEST SWAP2 SWAP3 PUSH1 0x1F NOT DUP5 AND DUP6 DUP5 MSTORE PUSH1 0x20 DUP5 KECCAK256 SWAP4 JUMPDEST DUP2 DUP2 LT PUSH2 0xC44 JUMPI POP SWAP1 DUP5 PUSH1 0x1 SWAP6 SWAP5 SWAP4 SWAP3 LT PUSH2 0xC2A JUMPI JUMPDEST POP POP POP DUP2 SHL ADD SWAP1 SSTORE PUSH2 0xA95 JUMP JUMPDEST PUSH1 0x0 NOT PUSH1 0xF8 DUP6 PUSH1 0x3 SHL AND SHR NOT SWAP2 ADD CALLDATALOAD AND SWAP1 SSTORE DUP13 DUP1 DUP1 PUSH2 0xC1D JUMP JUMPDEST SWAP2 SWAP4 PUSH1 0x20 PUSH1 0x1 DUP2 SWAP3 DUP8 DUP8 ADD CALLDATALOAD DUP2 SSTORE ADD SWAP6 ADD SWAP3 ADD PUSH2 0xC07 JUMP JUMPDEST PUSH1 0x20 DUP3 DUP7 PUSH2 0xC85 SWAP5 MSTORE KECCAK256 PUSH1 0x1F DUP5 ADD PUSH1 0x5 SHR DUP2 ADD SWAP2 PUSH1 0x20 DUP6 LT PUSH2 0xBCE JUMPI PUSH1 0x1F ADD PUSH1 0x5 SHR ADD SWAP1 PUSH2 0x187A JUMP JUMPDEST DUP12 DUP14 PUSH2 0xA65 JUMP JUMPDEST PUSH1 0x24 DUP13 PUSH4 0x4E487B71 PUSH1 0xE0 SHL DUP2 MSTORE PUSH1 0x41 PUSH1 0x4 MSTORE REVERT JUMPDEST SWAP2 SWAP3 PUSH1 0x1F NOT DUP5 AND DUP6 DUP5 MSTORE PUSH1 0x20 DUP5 KECCAK256 SWAP4 JUMPDEST DUP2 DUP2 LT PUSH2 0xCED JUMPI POP SWAP1 DUP5 PUSH1 0x1 SWAP6 SWAP5 SWAP4 SWAP3 LT PUSH2 0xCD3 JUMPI JUMPDEST POP POP POP DUP2 SHL ADD SWAP1 SSTORE PUSH2 0xA31 JUMP JUMPDEST PUSH1 0x0 NOT PUSH1 0xF8 DUP6 PUSH1 0x3 SHL AND SHR NOT SWAP2 ADD CALLDATALOAD AND SWAP1 SSTORE DUP13 DUP1 DUP1 PUSH2 0xCC6 JUMP JUMPDEST SWAP2 SWAP4 PUSH1 0x20 PUSH1 0x1 DUP2 SWAP3 DUP8 DUP8 ADD CALLDATALOAD DUP2 SSTORE ADD SWAP6 ADD SWAP3 ADD PUSH2 0xCB0 JUMP JUMPDEST PUSH1 0x20 DUP3 DUP7 PUSH2 0xD2E SWAP5 MSTORE KECCAK256 PUSH1 0x1F DUP5 ADD PUSH1 0x5 SHR DUP2 ADD SWAP2 PUSH1 0x20 DUP6 LT PUSH2 0xBCE JUMPI PUSH1 0x1F ADD PUSH1 0x5 SHR ADD SWAP1 PUSH2 0x187A JUMP JUMPDEST DUP12 DUP14 PUSH2 0xA01 JUMP JUMPDEST SWAP2 SWAP3 PUSH1 0x1F NOT DUP5 AND DUP6 DUP5 MSTORE PUSH1 0x20 DUP5 KECCAK256 SWAP4 JUMPDEST DUP2 DUP2 LT PUSH2 0xD82 JUMPI POP SWAP1 DUP5 PUSH1 0x1 SWAP6 SWAP5 SWAP4 SWAP3 LT PUSH2 0xD68 JUMPI JUMPDEST POP POP POP DUP2 SHL ADD SWAP1 SSTORE PUSH2 0x9C3 JUMP JUMPDEST PUSH1 0x0 NOT PUSH1 0xF8 DUP6 PUSH1 0x3 SHL AND SHR NOT SWAP2 ADD CALLDATALOAD AND SWAP1 SSTORE DUP13 DUP1 DUP1 PUSH2 0xD5B JUMP JUMPDEST SWAP2 SWAP4 PUSH1 0x20 PUSH1 0x1 DUP2 SWAP3 DUP8 DUP8 ADD CALLDATALOAD DUP2 SSTORE ADD SWAP6 ADD SWAP3 ADD PUSH2 0xD45 JUMP JUMPDEST PUSH1 0x20 DUP3 DUP7 PUSH2 0xDC3 SWAP5 MSTORE KECCAK256 PUSH1 0x1F DUP5 ADD PUSH1 0x5 SHR DUP2 ADD SWAP2 PUSH1 0x20 DUP6 LT PUSH2 0xBCE JUMPI PUSH1 0x1F ADD PUSH1 0x5 SHR ADD SWAP1 PUSH2 0x187A JUMP JUMPDEST DUP12 DUP14 PUSH2 0x993 JUMP JUMPDEST SWAP2 SWAP3 PUSH1 0x1F NOT DUP5 AND DUP6 DUP5 MSTORE PUSH1 0x20 DUP5 KECCAK256 SWAP4 JUMPDEST DUP2 DUP2 LT PUSH2 0xE17 JUMPI POP SWAP1 DUP5 PUSH1 0x1 SWAP6 SWAP5 SWAP4 SWAP3 LT PUSH2 0xDFD JUMPI JUMPDEST POP POP POP DUP2 SHL ADD SWAP1 SSTORE PUSH2 0x95F JUMP JUMPDEST PUSH1 0x0 NOT PUSH1 0xF8 DUP6 PUSH1 0x3 SHL AND SHR NOT SWAP2 ADD CALLDATALOAD AND SWAP1 SSTORE DUP13 DUP1 DUP1 PUSH2 0xDF0 JUMP JUMPDEST SWAP2 SWAP4 PUSH1 0x20 PUSH1 0x1 DUP2 SWAP3 DUP8 DUP8 ADD CALLDATALOAD DUP2 SSTORE ADD SWAP6 ADD SWAP3 ADD PUSH2 0xDDA JUMP JUMPDEST PUSH1 0x20 DUP3 DUP7 PUSH2 0xE58 SWAP5 MSTORE KECCAK256 PUSH1 0x1F DUP5 ADD PUSH1 0x5 SHR DUP2 ADD SWAP2 PUSH1 0x20 DUP6 LT PUSH2 0xBCE JUMPI PUSH1 0x1F ADD PUSH1 0x5 SHR ADD SWAP1 PUSH2 0x187A JUMP JUMPDEST DUP12 DUP14 PUSH2 0x92E JUMP JUMPDEST PUSH2 0xE69 DUP2 DUP4 PUSH2 0x180D JUMP JUMPDEST SWAP1 PUSH8 0xFFFFFFFFFFFFFFFF DUP3 GT PUSH2 0xF77 JUMPI DUP16 SWAP1 PUSH2 0xE85 DUP8 SLOAD PUSH2 0x1840 JUMP JUMPDEST PUSH1 0x1F DUP2 GT PUSH2 0xF47 JUMPI JUMPDEST POP DUP2 PUSH1 0x1F DUP5 GT PUSH1 0x1 EQ PUSH2 0xEDD JUMPI DUP4 PUSH1 0x1 SWAP6 SWAP3 SWAP5 PUSH1 0x20 SWAP5 DUP8 SWAP7 PUSH2 0xEC3 SWAP5 SWAP3 PUSH2 0xED2 JUMPI POP POP PUSH1 0x0 NOT DUP3 PUSH1 0x1 SHL SWAP3 PUSH1 0x3 SHL SHR NOT AND OR SWAP1 JUMP JUMPDEST DUP8 SSTORE JUMPDEST ADD SWAP5 ADD SWAP3 ADD SWAP2 SWAP3 PUSH2 0x8EE JUMP JUMPDEST ADD CALLDATALOAD SWAP1 POP CODESIZE DUP1 PUSH2 0x948 JUMP JUMPDEST SWAP2 PUSH1 0x1F NOT DUP5 AND DUP9 DUP5 MSTORE PUSH1 0x20 DUP5 KECCAK256 SWAP4 JUMPDEST DUP2 DUP2 LT PUSH2 0xF2F JUMPI POP SWAP4 PUSH1 0x20 SWAP4 PUSH1 0x1 SWAP7 SWAP4 DUP8 SWAP7 SWAP4 DUP4 DUP9 SWAP6 LT PUSH2 0xF15 JUMPI JUMPDEST POP POP POP DUP2 SHL ADD DUP8 SSTORE PUSH2 0xEC6 JUMP JUMPDEST PUSH1 0x0 NOT PUSH1 0xF8 DUP6 PUSH1 0x3 SHL AND SHR NOT SWAP2 ADD CALLDATALOAD AND SWAP1 SSTORE CODESIZE DUP1 DUP1 PUSH2 0xF08 JUMP JUMPDEST SWAP2 SWAP4 PUSH1 0x20 PUSH1 0x1 DUP2 SWAP3 DUP8 DUP8 ADD CALLDATALOAD DUP2 SSTORE ADD SWAP6 ADD SWAP3 ADD PUSH2 0xEEC JUMP JUMPDEST PUSH2 0xF71 SWAP1 DUP9 DUP5 MSTORE PUSH1 0x20 DUP5 KECCAK256 PUSH1 0x1F DUP7 ADD PUSH1 0x5 SHR DUP2 ADD SWAP2 PUSH1 0x20 DUP8 LT PUSH2 0xBCE JUMPI PUSH1 0x1F ADD PUSH1 0x5 SHR ADD SWAP1 PUSH2 0x187A JUMP JUMPDEST CODESIZE PUSH2 0xE8E JUMP JUMPDEST POP PUSH1 0x24 DUP16 PUSH4 0x4E487B71 PUSH1 0xE0 SHL DUP2 MSTORE PUSH1 0x41 PUSH1 0x4 MSTORE REVERT JUMPDEST DUP6 DUP13 MSTORE DUP3 PUSH1 0x20 DUP14 KECCAK256 SWAP2 DUP3 ADD SWAP2 ADD JUMPDEST DUP2 DUP2 LT PUSH2 0xFA7 JUMPI POP PUSH2 0x8E1 JUMP JUMPDEST DUP1 PUSH2 0xFB3 PUSH1 0x1 SWAP3 PUSH2 0x1891 JUMP JUMPDEST ADD PUSH2 0xF9A JUMP JUMPDEST DUP11 DUP1 REVERT JUMPDEST DUP10 DUP1 REVERT JUMPDEST DUP1 PUSH1 0x9 MUL SWAP1 PUSH1 0x9 DUP3 DIV SUB PUSH2 0x10D7 JUMPI DUP2 PUSH1 0x9 MUL SWAP1 PUSH1 0x9 DUP3 DIV DUP4 SUB PUSH2 0x10C3 JUMPI PUSH1 0x4 DUP8 MSTORE PUSH32 0x8A35ACFBC15FF81A39AE7D344FD709F28E8600B4AA8C65C6B64BFE7FE36BD19B ADD SWAP1 PUSH32 0x8A35ACFBC15FF81A39AE7D344FD709F28E8600B4AA8C65C6B64BFE7FE36BD19B ADD JUMPDEST DUP2 DUP2 LT PUSH2 0x1035 JUMPI POP PUSH2 0x7FF JUMP JUMPDEST DUP1 SLOAD DUP8 DUP3 SSTORE DUP1 PUSH2 0x1098 JUMPI JUMPDEST POP DUP1 PUSH2 0x1050 PUSH1 0x1 PUSH1 0x9 SWAP4 ADD PUSH2 0x1891 JUMP JUMPDEST PUSH2 0x105C PUSH1 0x2 DUP3 ADD PUSH2 0x1891 JUMP JUMPDEST DUP8 PUSH1 0x3 DUP3 ADD SSTORE PUSH2 0x106E PUSH1 0x4 DUP3 ADD PUSH2 0x1891 JUMP JUMPDEST PUSH2 0x107A PUSH1 0x5 DUP3 ADD PUSH2 0x1891 JUMP JUMPDEST DUP8 PUSH1 0x6 DUP3 ADD SSTORE DUP8 PUSH1 0x7 DUP3 ADD SSTORE PUSH2 0x1092 PUSH1 0x8 DUP3 ADD PUSH2 0x1891 JUMP JUMPDEST ADD PUSH2 0x1028 JUMP JUMPDEST DUP2 DUP9 MSTORE PUSH1 0x20 DUP9 KECCAK256 SWAP1 DUP2 ADD SWAP1 JUMPDEST DUP2 DUP2 LT PUSH2 0x10B1 JUMPI POP PUSH2 0x1040 JUMP JUMPDEST DUP1 PUSH2 0x10BD PUSH1 0x1 SWAP3 PUSH2 0x1891 JUMP JUMPDEST ADD PUSH2 0x10A4 JUMP JUMPDEST PUSH1 0x24 DUP8 PUSH4 0x4E487B71 PUSH1 0xE0 SHL DUP2 MSTORE PUSH1 0x11 PUSH1 0x4 MSTORE REVERT JUMPDEST PUSH1 0x24 DUP7 PUSH4 0x4E487B71 PUSH1 0xE0 SHL DUP2 MSTORE PUSH1 0x11 PUSH1 0x4 MSTORE REVERT JUMPDEST PUSH1 0x24 DUP6 PUSH4 0x4E487B71 PUSH1 0xE0 SHL DUP2 MSTORE PUSH1 0x41 PUSH1 0x4 MSTORE REVERT JUMPDEST PUSH1 0x24 DUP6 PUSH4 0x4E487B71 PUSH1 0xE0 SHL DUP2 MSTORE PUSH1 0x11 PUSH1 0x4 MSTORE REVERT JUMPDEST PUSH1 0x64 PUSH1 0x40 MLOAD PUSH3 0x461BCD PUSH1 0xE5 SHL DUP2 MSTORE PUSH1 0x20 PUSH1 0x4 DUP3 ADD MSTORE PUSH1 0x16 PUSH1 0x24 DUP3 ADD MSTORE PUSH32 0x496E76616C69642064617461207369676E617475726500000000000000000000 PUSH1 0x44 DUP3 ADD MSTORE REVERT JUMPDEST PUSH1 0x40 MLOAD RETURNDATASIZE PUSH1 0x0 DUP3 RETURNDATACOPY RETURNDATASIZE SWAP1 REVERT JUMPDEST PUSH1 0x64 PUSH1 0x40 MLOAD PUSH3 0x461BCD PUSH1 0xE5 SHL DUP2 MSTORE PUSH1 0x20 PUSH1 0x4 DUP3 ADD MSTORE PUSH1 0x18 PUSH1 0x24 DUP3 ADD MSTORE PUSH32 0x4F6E6C7920617574686F72697A656420736F6C7574696F6E0000000000000000 PUSH1 0x44 DUP3 ADD MSTORE REVERT JUMPDEST PUSH4 0x4E487B71 PUSH1 0xE0 SHL PUSH1 0x0 MSTORE PUSH1 0x32 PUSH1 0x4 MSTORE PUSH1 0x24 PUSH1 0x0 REVERT JUMPDEST PUSH1 0x20 DUP2 RETURNDATASIZE PUSH1 0x20 GT PUSH2 0x11E4 JUMPI JUMPDEST DUP2 PUSH2 0x11D6 PUSH1 0x20 SWAP4 DUP4 PUSH2 0x150C JUMP JUMPDEST DUP2 ADD SUB SLT PUSH2 0x13C JUMPI MLOAD PUSH2 0x6C3 JUMP JUMPDEST RETURNDATASIZE SWAP2 POP PUSH2 0x11C9 JUMP JUMPDEST CALLVALUE PUSH2 0x13C JUMPI PUSH1 0x0 PUSH1 0x3 NOT CALLDATASIZE ADD SLT PUSH2 0x13C JUMPI PUSH1 0x20 PUSH20 0xFFFFFFFFFFFFFFFFFFFFFFFFFFFFFFFFFFFFFFFF PUSH1 0x2 SLOAD AND PUSH1 0x40 MLOAD SWAP1 DUP2 MSTORE RETURN JUMPDEST CALLVALUE PUSH2 0x13C JUMPI PUSH1 0x20 PUSH1 0x3 NOT CALLDATASIZE ADD SLT PUSH2 0x13C JUMPI PUSH1 0x4 CALLDATALOAD PUSH20 0xFFFFFFFFFFFFFFFFFFFFFFFFFFFFFFFFFFFFFFFF DUP2 AND DUP1 SWAP2 SUB PUSH2 0x13C JUMPI PUSH2 0x1275 PUSH20 0xFFFFFFFFFFFFFFFFFFFFFFFFFFFFFFFFFFFFFFFF PUSH1 0x0 SLOAD AND CALLER EQ PUSH2 0x14C1 JUMP JUMPDEST DUP1 ISZERO PUSH2 0x12E3 JUMPI PUSH32 0xFFFFFFFFFFFFFFFFFFFFFFFF0000000000000000000000000000000000000000 PUSH1 0x2 SLOAD DUP3 PUSH20 0xFFFFFFFFFFFFFFFFFFFFFFFFFFFFFFFFFFFFFFFF DUP3 AND PUSH32 0xC8B1D729EA7C9A12C8EBCAF5BBB64F5A001F331261D068920947589040A2D954 PUSH1 0x0 DUP1 LOG3 AND OR PUSH1 0x2 SSTORE STOP JUMPDEST PUSH1 0x84 PUSH1 0x40 MLOAD PUSH3 0x461BCD PUSH1 0xE5 SHL DUP2 MSTORE PUSH1 0x20 PUSH1 0x4 DUP3 ADD MSTORE PUSH1 0x23 PUSH1 0x24 DUP3 ADD MSTORE PUSH32 0x6365727456657269666965722063616E6E6F74206265207A65726F2061646472 PUSH1 0x44 DUP3 ADD MSTORE PUSH32 0x6573730000000000000000000000000000000000000000000000000000000000 PUSH1 0x64 DUP3 ADD MSTORE REVERT JUMPDEST CALLVALUE PUSH2 0x13C JUMPI PUSH1 0x20 PUSH1 0x3 NOT CALLDATASIZE ADD SLT PUSH2 0x13C JUMPI PUSH1 0x4 CALLDATALOAD PUSH20 0xFFFFFFFFFFFFFFFFFFFFFFFFFFFFFFFFFFFFFFFF DUP2 AND DUP1 SWAP2 SUB PUSH2 0x13C JUMPI PUSH1 0x20 SWAP1 PUSH20 0xFFFFFFFFFFFFFFFFFFFFFFFFFFFFFFFFFFFFFFFF PUSH1 0x3 SLOAD AND EQ PUSH1 0x40 MLOAD SWAP1 DUP2 MSTORE RETURN JUMPDEST CALLVALUE PUSH2 0x13C JUMPI PUSH1 0x20 PUSH1 0x3 NOT CALLDATASIZE ADD SLT PUSH2 0x13C JUMPI PUSH1 0x4 CALLDATALOAD PUSH2 0x13DB PUSH20 0xFFFFFFFFFFFFFFFFFFFFFFFFFFFFFFFFFFFFFFFF PUSH1 0x0 SLOAD AND CALLER EQ PUSH2 0x14C1 JUMP JUMPDEST DUP1 ISZERO PUSH2 0x140F JUMPI DUP1 PUSH1 0x7 SLOAD PUSH32 0xB134F848761A2F3E71DE218780593A57AD2BD1AB2139BEDE1C142CA96C822599 PUSH1 0x0 DUP1 LOG3 PUSH1 0x7 SSTORE STOP JUMPDEST PUSH1 0x84 PUSH1 0x40 MLOAD PUSH3 0x461BCD PUSH1 0xE5 SHL DUP2 MSTORE PUSH1 0x20 PUSH1 0x4 DUP3 ADD MSTORE PUSH1 0x25 PUSH1 0x24 DUP3 ADD MSTORE PUSH32 0x417574686F72697A6564536F6C7574696F6E486173682063616E6E6F74206265 PUSH1 0x44 DUP3 ADD MSTORE PUSH32 0x207A65726F000000000000000000000000000000000000000000000000000000 PUSH1 0x64 DUP3 ADD MSTORE REVERT JUMPDEST PUSH1 0x0 JUMPDEST DUP4 DUP2 LT PUSH2 0x148C JUMPI POP POP PUSH1 0x0 SWAP2 ADD MSTORE JUMP JUMPDEST DUP2 DUP2 ADD MLOAD DUP4 DUP3 ADD MSTORE PUSH1 0x20 ADD PUSH2 0x147C JUMP JUMPDEST SWAP1 PUSH1 0x1F NOT PUSH1 0x1F PUSH1 0x20 SWAP4 PUSH2 0x14BA DUP2 MLOAD DUP1 SWAP3 DUP2 DUP8 MSTORE DUP8 DUP1 DUP9 ADD SWAP2 ADD PUSH2 0x1479 JUMP JUMPDEST ADD AND ADD ADD SWAP1 JUMP JUMPDEST ISZERO PUSH2 0x14C8 JUMPI JUMP JUMPDEST PUSH1 0x64 PUSH1 0x40 MLOAD PUSH3 0x461BCD PUSH1 0xE5 SHL DUP2 MSTORE PUSH1 0x20 PUSH1 0x4 DUP3 ADD MSTORE PUSH1 0x16 PUSH1 0x24 DUP3 ADD MSTORE PUSH32 0x4F6E6C792063616C6C61626C65206279206F776E657200000000000000000000 PUSH1 0x44 DUP3 ADD MSTORE REVERT JUMPDEST SWAP1 PUSH1 0x1F PUSH1 0x1F NOT SWAP2 ADD AND DUP2 ADD SWAP1 DUP2 LT PUSH8 0xFFFFFFFFFFFFFFFF DUP3 GT OR PUSH2 0x47B JUMPI PUSH1 0x40 MSTORE JUMP JUMPDEST PUSH1 0x1F DUP3 PUSH1 0x20 SWAP5 SWAP4 PUSH1 0x1F NOT SWAP4 DUP2 DUP7 MSTORE DUP7 DUP7 ADD CALLDATACOPY PUSH1 0x0 DUP6 DUP3 DUP7 ADD ADD MSTORE ADD AND ADD ADD SWAP1 JUMP JUMPDEST SWAP1 CALLDATALOAD PUSH1 0x1E NOT DUP3 CALLDATASIZE SUB ADD DUP2 SLT ISZERO PUSH2 0x13C JUMPI ADD PUSH1 0x20 DUP2 CALLDATALOAD SWAP2 ADD SWAP2 PUSH8 0xFFFFFFFFFFFFFFFF DUP3 GT PUSH2 0x13C JUMPI DUP2 CALLDATASIZE SUB DUP4 SGT PUSH2 0x13C JUMPI JUMP JUMPDEST SWAP4 SWAP3 SWAP2 DUP1 PUSH1 0x40 DUP7 ADD PUSH1 0x40 DUP8 MSTORE MSTORE PUSH1 0x60 DUP6 ADD PUSH1 0x60 DUP3 PUSH1 0x5 SHL DUP8 ADD ADD SWAP2 DUP4 PUSH1 0x0 SWAP1 PUSH32 0xFFFFFFFFFFFFFFFFFFFFFFFFFFFFFFFFFFFFFFFFFFFFFFFFFFFFFFFFFFFFFEE1 DUP2 CALLDATASIZE SUB ADD JUMPDEST DUP4 DUP4 LT PUSH2 0x15DC JUMPI POP POP POP POP POP PUSH1 0x20 SWAP2 POP SWAP4 ADD MSTORE JUMP JUMPDEST SWAP1 SWAP2 SWAP3 SWAP4 SWAP5 PUSH32 0xFFFFFFFFFFFFFFFFFFFFFFFFFFFFFFFFFFFFFFFFFFFFFFFFFFFFFFFFFFFFFFA0 DUP11 DUP3 SUB ADD DUP7 MSTORE DUP7 CALLDATALOAD DUP3 DUP2 SLT ISZERO PUSH2 0x13C JUMPI DUP4 ADD SWAP1 PUSH2 0x120 DUP2 ADD DUP3 CALLDATALOAD PUSH1 0x1E NOT DUP5 CALLDATASIZE SUB ADD DUP2 SLT ISZERO PUSH2 0x13C JUMPI DUP4 ADD PUSH1 0x20 DUP2 CALLDATALOAD SWAP2 ADD SWAP2 PUSH8 0xFFFFFFFFFFFFFFFF DUP3 GT PUSH2 0x13C JUMPI DUP2 PUSH1 0x5 SHL SWAP1 DUP2 CALLDATASIZE SUB DUP5 SGT PUSH2 0x13C JUMPI PUSH2 0x120 DUP6 MSTORE DUP3 SWAP1 MSTORE DUP4 ADD PUSH2 0x140 SWAP1 DUP2 ADD SWAP3 SWAP2 SWAP1 DUP5 ADD DUP3 PUSH1 0x0 JUMPDEST DUP4 DUP2 LT PUSH2 0x1741 JUMPI POP POP POP POP POP PUSH2 0x1732 DUP4 PUSH1 0x20 SWAP4 PUSH2 0x1723 PUSH2 0x1703 PUSH2 0x16E8 PUSH2 0x16C3 PUSH2 0x16A8 DUP10 SWAP9 PUSH2 0x169B DUP11 PUSH1 0x1 SWAP14 ADD DUP10 PUSH2 0x1550 JUMP JUMPDEST SWAP1 DUP9 DUP4 SUB DUP13 DUP11 ADD MSTORE PUSH2 0x152F JUMP JUMPDEST PUSH2 0x16B5 PUSH1 0x40 DUP9 ADD DUP9 PUSH2 0x1550 JUMP JUMPDEST SWAP1 DUP8 DUP4 SUB PUSH1 0x40 DUP10 ADD MSTORE PUSH2 0x152F JUMP JUMPDEST PUSH1 0x60 DUP7 ADD CALLDATALOAD PUSH1 0x60 DUP7 ADD MSTORE PUSH2 0x16DA PUSH1 0x80 DUP8 ADD DUP8 PUSH2 0x1550 JUMP JUMPDEST SWAP1 DUP7 DUP4 SUB PUSH1 0x80 DUP9 ADD MSTORE PUSH2 0x152F JUMP JUMPDEST PUSH2 0x16F5 PUSH1 0xA0 DUP7 ADD DUP7 PUSH2 0x1550 JUMP JUMPDEST SWAP1 DUP6 DUP4 SUB PUSH1 0xA0 DUP8 ADD MSTORE PUSH2 0x152F JUMP JUMPDEST SWAP3 PUSH1 0xC0 DUP2 ADD CALLDATALOAD PUSH1 0xC0 DUP5 ADD MSTORE PUSH1 0xE0 DUP2 ADD CALLDATALOAD PUSH1 0xE0 DUP5 ADD MSTORE PUSH2 0x100 DUP2 ADD SWAP1 PUSH2 0x1550 JUMP JUMPDEST SWAP2 PUSH2 0x100 DUP2 DUP6 SUB SWAP2 ADD MSTORE PUSH2 0x152F JUMP JUMPDEST SWAP9 ADD SWAP8 SWAP7 ADD SWAP5 SWAP4 ADD SWAP2 SWAP1 PUSH2 0x15C7 JUMP JUMPDEST SWAP1 SWAP2 SWAP3 SWAP4 SWAP5 PUSH1 0x20 DUP1 PUSH2 0x1786 DUP4 PUSH32 0xFFFFFFFFFFFFFFFFFFFFFFFFFFFFFFFFFFFFFFFFFFFFFFFFFFFFFFFFFFFFFEC0 DUP12 PUSH1 0x1 SWAP7 SUB ADD DUP9 MSTORE PUSH2 0x1780 DUP11 DUP9 PUSH2 0x1550 JUMP JUMPDEST SWAP1 PUSH2 0x152F JUMP JUMPDEST SWAP8 ADD SWAP6 SWAP5 ADD SWAP3 SWAP2 ADD PUSH2 0x1669 JUMP JUMPDEST SWAP1 CALLDATALOAD SWAP1 PUSH32 0xFFFFFFFFFFFFFFFFFFFFFFFFFFFFFFFFFFFFFFFFFFFFFFFFFFFFFFFFFFFFFEE1 DUP2 CALLDATASIZE SUB ADD DUP3 SLT ISZERO PUSH2 0x13C JUMPI ADD SWAP1 JUMP JUMPDEST SWAP3 SWAP2 SWAP3 PUSH8 0xFFFFFFFFFFFFFFFF DUP3 GT PUSH2 0x47B JUMPI PUSH1 0x40 MLOAD SWAP2 PUSH2 0x17F0 PUSH1 0x20 PUSH1 0x1F NOT PUSH1 0x1F DUP5 ADD AND ADD DUP5 PUSH2 0x150C JUMP JUMPDEST DUP3 SWAP5 DUP2 DUP5 MSTORE DUP2 DUP4 ADD GT PUSH2 0x13C JUMPI DUP3 DUP2 PUSH1 0x20 SWAP4 DUP5 PUSH1 0x0 SWAP7 ADD CALLDATACOPY ADD ADD MSTORE JUMP JUMPDEST SWAP1 CALLDATALOAD SWAP1 PUSH1 0x1E NOT DUP2 CALLDATASIZE SUB ADD DUP3 SLT ISZERO PUSH2 0x13C JUMPI ADD DUP1 CALLDATALOAD SWAP1 PUSH8 0xFFFFFFFFFFFFFFFF DUP3 GT PUSH2 0x13C JUMPI PUSH1 0x20 ADD SWAP2 DUP2 CALLDATASIZE SUB DUP4 SGT PUSH2 0x13C JUMPI JUMP JUMPDEST SWAP1 PUSH1 0x1 DUP3 DUP2 SHR SWAP3 AND DUP1 ISZERO PUSH2 0x1870 JUMPI JUMPDEST PUSH1 0x20 DUP4 LT EQ PUSH2 0x185A JUMPI JUMP JUMPDEST PUSH4 0x4E487B71 PUSH1 0xE0 SHL PUSH1 0x0 MSTORE PUSH1 0x22 PUSH1 0x4 MSTORE PUSH1 0x24 PUSH1 0x0 REVERT JUMPDEST SWAP2 PUSH1 0x7F AND SWAP2 PUSH2 0x184F JUMP JUMPDEST DUP2 DUP2 LT PUSH2 0x1885 JUMPI POP POP JUMP JUMPDEST PUSH1 0x0 DUP2 SSTORE PUSH1 0x1 ADD PUSH2 0x187A JUMP JUMPDEST PUSH2 0x189B DUP2 SLOAD PUSH2 0x1840 JUMP JUMPDEST SWAP1 DUP2 PUSH2 0x18A5 JUMPI POP POP JUMP JUMPDEST DUP2 PUSH1 0x1F PUSH1 0x0 SWAP4 GT PUSH1 0x1 EQ PUSH2 0x18B8 JUMPI POP SSTORE JUMPDEST JUMP JUMPDEST DUP2 DUP4 MSTORE PUSH1 0x20 DUP4 KECCAK256 PUSH2 0x18D4 SWAP2 PUSH1 0x1F ADD PUSH1 0x5 SHR DUP2 ADD SWAP1 PUSH1 0x1 ADD PUSH2 0x187A JUMP JUMPDEST DUP1 DUP3 MSTORE DUP2 PUSH1 0x20 DUP2 KECCAK256 SWAP2 SSTORE SSTORE JUMP JUMPDEST PUSH8 0xFFFFFFFFFFFFFFFF DUP2 GT PUSH2 0x47B JUMPI PUSH1 0x5 SHL PUSH1 0x20 ADD SWAP1 JUMP JUMPDEST SWAP1 PUSH1 0x40 MLOAD SWAP2 DUP3 PUSH1 0x0 DUP3 SLOAD SWAP3 PUSH2 0x190D DUP5 PUSH2 0x1840 JUMP JUMPDEST DUP1 DUP5 MSTORE SWAP4 PUSH1 0x1 DUP2 AND SWAP1 DUP2 ISZERO PUSH2 0x1979 JUMPI POP PUSH1 0x1 EQ PUSH2 0x1932 JUMPI JUMPDEST POP PUSH2 0x18B6 SWAP3 POP SUB DUP4 PUSH2 0x150C JUMP JUMPDEST SWAP1 POP PUSH1 0x0 SWAP3 SWAP2 SWAP3 MSTORE PUSH1 0x20 PUSH1 0x0 KECCAK256 SWAP1 PUSH1 0x0 SWAP2 JUMPDEST DUP2 DUP4 LT PUSH2 0x195D JUMPI POP POP SWAP1 PUSH1 0x20 PUSH2 0x18B6 SWAP3 DUP3 ADD ADD CODESIZE PUSH2 0x1925 JUMP JUMPDEST PUSH1 0x20 SWAP2 SWAP4 POP DUP1 PUSH1 0x1 SWAP2 SLOAD DUP4 DUP6 DUP10 ADD ADD MSTORE ADD SWAP2 ADD SWAP1 SWAP2 DUP5 SWAP3 PUSH2 0x1944 JUMP JUMPDEST PUSH1 0x20 SWAP4 POP PUSH2 0x18B6 SWAP6 SWAP3 POP PUSH32 0xFFFFFFFFFFFFFFFFFFFFFFFFFFFFFFFFFFFFFFFFFFFFFFFFFFFFFFFFFFFFFF00 SWAP2 POP AND DUP3 DUP5 ADD MSTORE ISZERO ISZERO PUSH1 0x5 SHL DUP3 ADD ADD CODESIZE PUSH2 0x1925 JUMP JUMPDEST DUP2 MLOAD SWAP2 SWAP1 PUSH1 0x41 DUP4 SUB PUSH2 0x19EA JUMPI PUSH2 0x19E3 SWAP3 POP PUSH1 0x20 DUP3 ADD MLOAD SWAP1 PUSH1 0x60 PUSH1 0x40 DUP5 ADD MLOAD SWAP4 ADD MLOAD PUSH1 0x0 BYTE SWAP1 PUSH2 0x1AC8 JUMP JUMPDEST SWAP2 SWAP3 SWAP1 SWAP2 SWAP1 JUMP JUMPDEST POP POP PUSH1 0x0 SWAP2 PUSH1 0x2 SWAP2 SWAP1 JUMP JUMPDEST SWAP2 SWAP1 SWAP2 PUSH1 0x4 DUP2 LT ISZERO PUSH2 0x1AB2 JUMPI DUP1 PUSH2 0x1A0B JUMPI POP SWAP1 POP JUMP JUMPDEST PUSH1 0x0 PUSH1 0x1 DUP3 SUB PUSH2 0x1A3F JUMPI PUSH32 0xF645EEDF00000000000000000000000000000000000000000000000000000000 PUSH1 0x0 MSTORE PUSH1 0x4 PUSH1 0x0 REVERT JUMPDEST POP PUSH1 0x2 DUP2 SUB PUSH2 0x1A76 JUMPI DUP3 PUSH32 0xFCE698F700000000000000000000000000000000000000000000000000000000 PUSH1 0x0 MSTORE PUSH1 0x4 MSTORE PUSH1 0x24 PUSH1 0x0 REVERT JUMPDEST SWAP1 SWAP2 PUSH1 0x3 PUSH1 0x0 SWAP3 EQ PUSH2 0x1A86 JUMPI POP POP JUMP JUMPDEST PUSH1 0x24 SWAP3 POP PUSH32 0xD78BCE0C00000000000000000000000000000000000000000000000000000000 DUP3 MSTORE PUSH1 0x4 MSTORE REVERT JUMPDEST PUSH4 0x4E487B71 PUSH1 0xE0 SHL PUSH1 0x0 MSTORE PUSH1 0x21 PUSH1 0x4 MSTORE PUSH1 0x24 PUSH1 0x0 REVERT JUMPDEST SWAP2 SWAP1 PUSH32 0x7FFFFFFFFFFFFFFFFFFFFFFFFFFFFFFF5D576E7357A4501DDFE92F46681B20A0 DUP5 GT PUSH2 0x1B52 JUMPI SWAP2 PUSH1 0x20 SWAP4 PUSH1 0x80 SWAP3 PUSH1 0xFF PUSH1 0x0 SWAP6 PUSH1 0x40 MLOAD SWAP5 DUP6 MSTORE AND DUP7 DUP5 ADD MSTORE PUSH1 0x40 DUP4 ADD MSTORE PUSH1 0x60 DUP3 ADD MSTORE DUP3 DUP1 MSTORE PUSH1 0x1 GAS STATICCALL ISZERO PUSH2 0x1157 JUMPI PUSH1 0x0 MLOAD PUSH20 0xFFFFFFFFFFFFFFFFFFFFFFFFFFFFFFFFFFFFFFFF DUP2 AND ISZERO PUSH2 0x1B46 JUMPI SWAP1 PUSH1 0x0 SWAP1 PUSH1 0x0 SWAP1 JUMP JUMPDEST POP PUSH1 0x0 SWAP1 PUSH1 0x1 SWAP1 PUSH1 0x0 SWAP1 JUMP JUMPDEST POP POP POP PUSH1 0x0 SWAP2 PUSH1 0x3 SWAP2 SWAP1 JUMP INVALID LOG2 PUSH5 0x6970667358 0x22 SLT KECCAK256 AND PUSH18 0xF1C43DC5C8346D69577E963C6AABEFB6C83C DIV SSTORE 0xB0 ADD 0xDF PUSH20 0xDD691166B3EE64736F6C634300081E0033000000 "
        },
        "methodIdentifiers": {
          "acceptOwnership()": "79ba5097",
          "addAdmin((bytes[],bytes,bytes,bytes32,bytes,bytes,bytes32,bytes32,bytes)[],uint256,bytes)": "6dd5be81",
          "getAdminData()": "8f7a844b",
          "getAuthorizedSolutionHash()": "c3713cad",
          "getCertVerifier()": "40c7d18f",
          "getSignatureNonce()": "8de1ecb2",
          "isAdmin(address)": "24d7806c",
          "owner()": "8da5cb5b",
          "setAuthorizedSolutionHash(bytes32)": "10b0258c",
          "setCertVerifier(address)": "3f96591f",
          "transferOwnership(address)": "f2fde38b"
        }
      }
    }
  }
}