{
  "_format": "hh-sol-artifact-1",
  "contractName": "AdminCertificateHelper",
  "sourceName": "contract/AdminCertificateHelper.sol",
  "abi": [
    {
      "inputs": [
        {
          "internalType": "contract ICertVerifier",
          "name": "_certVerifier",
          "type": "address"
        },
        {
          "internalType": "bytes32",
          "name": "_authorizedSolutionHash",
          "type": "bytes32"
        }
      ],
      "stateMutability": "nonpayable",
      "type": "constructor"
    },
    {
      "inputs": [],
      "name": "ECDSAInvalidSignature",
      "type": "error"
    },
    {
      "inputs": [
        {
          "internalType": "uint256",
          "name": "length",
          "type": "uint256"
        }
      ],
      "name": "ECDSAInvalidSignatureLength",
      "type": "error"
    },
    {
      "inputs": [
        {
          "internalType": "bytes32",
          "name": "s",
          "type": "bytes32"
        }
      ],
      "name": "ECDSAInvalidSignatureS",
      "type": "error"
    },
    {
      "anonymous": false,
      "inputs": [
        {
          "indexed": true,
          "internalType": "contract ICertVerifier",
          "name": "oldCertVerifier",
          "type": "address"
        },
        {
          "indexed": true,
          "internalType": "contract ICertVerifier",
          "name": "newCertVerifier",
          "type": "address"
        }
      ],
      "name": "CertVerifierSet",
      "type": "event"
    },
    {
      "anonymous": false,
      "inputs": [
        {
          "indexed": true,
          "internalType": "address",
          "name": "from",
          "type": "address"
        },
        {
          "indexed": true,
          "internalType": "address",
          "name": "to",
          "type": "address"
        }
      ],
      "name": "OwnershipTransferRequested",
      "type": "event"
    },
    {
      "anonymous": false,
      "inputs": [
        {
          "indexed": true,
          "internalType": "address",
          "name": "from",
          "type": "address"
        },
        {
          "indexed": true,
          "internalType": "address",
          "name": "to",
          "type": "address"
        }
      ],
      "name": "OwnershipTransferred",
      "type": "event"
    },
    {
      "anonymous": false,
      "inputs": [
        {
          "indexed": true,
          "internalType": "address",
          "name": "oldAdmin",
          "type": "address"
        },
        {
          "indexed": true,
          "internalType": "address",
          "name": "newAdmin",
          "type": "address"
        },
        {
          "components": [
            {
              "internalType": "bytes[]",
              "name": "nonSerializedParts",
              "type": "bytes[]"
            },
            {
              "internalType": "bytes",
              "name": "expirationDate",
              "type": "bytes"
            },
            {
              "internalType": "bytes",
              "name": "ca",
              "type": "bytes"
            },
            {
              "internalType": "bytes32",
              "name": "userData",
              "type": "bytes32"
            },
            {
              "internalType": "bytes",
              "name": "publicKey",
              "type": "bytes"
            },
            {
              "internalType": "bytes",
              "name": "serialNumber",
              "type": "bytes"
            },
            {
              "internalType": "bytes32",
              "name": "mrEnclave",
              "type": "bytes32"
            },
            {
              "internalType": "bytes32",
              "name": "mrSigner",
              "type": "bytes32"
            },
            {
              "internalType": "bytes",
              "name": "signature",
              "type": "bytes"
            }
          ],
          "indexed": false,
          "internalType": "struct ChunkedX509Cert[]",
          "name": "certsChain",
          "type": "tuple[]"
        },
        {
          "indexed": false,
          "internalType": "uint256",
          "name": "rootCertId",
          "type": "uint256"
        }
      ],
      "name": "SetAdmin",
      "type": "event"
    },
    {
      "anonymous": false,
      "inputs": [
        {
          "indexed": true,
          "internalType": "bytes32",
          "name": "oldAuthorizedSolutionHash",
          "type": "bytes32"
        },
        {
          "indexed": true,
          "internalType": "bytes32",
          "name": "newAuthorizedSolutionHash",
          "type": "bytes32"
        }
      ],
      "name": "SetAuthorizedSolutionHash",
      "type": "event"
    },
    {
      "inputs": [],
      "name": "acceptOwnership",
      "outputs": [],
      "stateMutability": "nonpayable",
      "type": "function"
    },
    {
      "inputs": [
        {
          "components": [
            {
              "internalType": "bytes[]",
              "name": "nonSerializedParts",
              "type": "bytes[]"
            },
            {
              "internalType": "bytes",
              "name": "expirationDate",
              "type": "bytes"
            },
            {
              "internalType": "bytes",
              "name": "ca",
              "type": "bytes"
            },
            {
              "internalType": "bytes32",
              "name": "userData",
              "type": "bytes32"
            },
            {
              "internalType": "bytes",
              "name": "publicKey",
              "type": "bytes"
            },
            {
              "internalType": "bytes",
              "name": "serialNumber",
              "type": "bytes"
            },
            {
              "internalType": "bytes32",
              "name": "mrEnclave",
              "type": "bytes32"
            },
            {
              "internalType": "bytes32",
              "name": "mrSigner",
              "type": "bytes32"
            },
            {
              "internalType": "bytes",
              "name": "signature",
              "type": "bytes"
            }
          ],
          "internalType": "struct ChunkedX509Cert[]",
          "name": "_certsChain",
          "type": "tuple[]"
        },
        {
          "internalType": "uint256",
          "name": "_rootCertId",
          "type": "uint256"
        },
        {
          "internalType": "bytes",
          "name": "signature",
          "type": "bytes"
        }
      ],
      "name": "addAdmin",
      "outputs": [],
      "stateMutability": "nonpayable",
      "type": "function"
    },
    {
      "inputs": [],
      "name": "getAdminData",
      "outputs": [
        {
          "internalType": "address",
          "name": "_admin",
          "type": "address"
        },
        {
          "components": [
            {
              "internalType": "bytes[]",
              "name": "nonSerializedParts",
              "type": "bytes[]"
            },
            {
              "internalType": "bytes",
              "name": "expirationDate",
              "type": "bytes"
            },
            {
              "internalType": "bytes",
              "name": "ca",
              "type": "bytes"
            },
            {
              "internalType": "bytes32",
              "name": "userData",
              "type": "bytes32"
            },
            {
              "internalType": "bytes",
              "name": "publicKey",
              "type": "bytes"
            },
            {
              "internalType": "bytes",
              "name": "serialNumber",
              "type": "bytes"
            },
            {
              "internalType": "bytes32",
              "name": "mrEnclave",
              "type": "bytes32"
            },
            {
              "internalType": "bytes32",
              "name": "mrSigner",
              "type": "bytes32"
            },
            {
              "internalType": "bytes",
              "name": "signature",
              "type": "bytes"
            }
          ],
          "internalType": "struct ChunkedX509Cert[]",
          "name": "_certsChain",
          "type": "tuple[]"
        },
        {
          "internalType": "uint256",
          "name": "_rootCertId",
          "type": "uint256"
        }
      ],
      "stateMutability": "view",
      "type": "function"
    },
    {
      "inputs": [],
      "name": "getAuthorizedSolutionHash",
      "outputs": [
        {
          "internalType": "bytes32",
          "name": "",
          "type": "bytes32"
        }
      ],
      "stateMutability": "view",
      "type": "function"
    },
    {
      "inputs": [],
      "name": "getCertVerifier",
      "outputs": [
        {
          "internalType": "contract ICertVerifier",
          "name": "",
          "type": "address"
        }
      ],
      "stateMutability": "view",
      "type": "function"
    },
    {
      "inputs": [],
      "name": "getSignatureNonce",
      "outputs": [
        {
          "internalType": "uint256",
          "name": "",
          "type": "uint256"
        }
      ],
      "stateMutability": "view",
      "type": "function"
    },
    {
      "inputs": [
        {
          "internalType": "address",
          "name": "caller",
          "type": "address"
        }
      ],
      "name": "isAdmin",
      "outputs": [
        {
          "internalType": "bool",
          "name": "",
          "type": "bool"
        }
      ],
      "stateMutability": "view",
      "type": "function"
    },
    {
      "inputs": [],
      "name": "owner",
      "outputs": [
        {
          "internalType": "address payable",
          "name": "",
          "type": "address"
        }
      ],
      "stateMutability": "view",
      "type": "function"
    },
    {
      "inputs": [
        {
          "internalType": "bytes32",
          "name": "_authorizedSolutionHash",
          "type": "bytes32"
        }
      ],
      "name": "setAuthorizedSolutionHash",
      "outputs": [],
      "stateMutability": "nonpayable",
      "type": "function"
    },
    {
      "inputs": [
        {
          "internalType": "contract ICertVerifier",
          "name": "_certVerifier",
          "type": "address"
        }
      ],
      "name": "setCertVerifier",
      "outputs": [],
      "stateMutability": "nonpayable",
      "type": "function"
    },
    {
      "inputs": [
        {
          "internalType": "address",
          "name": "_to",
          "type": "address"
        }
      ],
      "name": "transferOwnership",
      "outputs": [],
      "stateMutability": "nonpayable",
      "type": "function"
    }
  ],
  "bytecode": "0x60803461019a57601f611d4a38819003918201601f19168301916001600160401b0383118484101761019f57808492604094855283398101031261019a5780516001600160a01b038116919082900361019a5760200151600080546001600160a01b03191633179055908015610149576002546040519190816001600160a01b0382167fc8b1d729ea7c9a12c8ebcaf5bbb64f5a001f331261d068920947589040a2d954600080a36001600160a01b0319161760025581156100f957506007549080604051927fb134f848761a2f3e71de218780593a57ad2bd1ab2139bede1c142ca96c822599600080a3600755611b9490816101b68239f35b62461bcd60e51b815260206004820152602560248201527f417574686f72697a6564536f6c7574696f6e486173682063616e6e6f74206265604482015264207a65726f60d81b6064820152608490fd5b60405162461bcd60e51b815260206004820152602360248201527f6365727456657269666965722063616e6e6f74206265207a65726f206164647260448201526265737360e81b6064820152608490fd5b600080fd5b634e487b7160e01b600052604160045260246000fdfe6080604052600436101561001257600080fd5b60003560e01c806310b0258c146113a457806324d7806c1461134d5780633f96591f1461122057806340c7d18f146111ec5780636dd5be81146105c857806379ba5097146104e35780638da5cb5b146104af5780638de1ecb2146104915780638f7a844b1461015f578063c3713cad146101415763f2fde38b1461009557600080fd5b3461013c57602060031936011261013c5760043573ffffffffffffffffffffffffffffffffffffffff811680910361013c5773ffffffffffffffffffffffffffffffffffffffff600054166100eb8133146114c1565b817fffffffffffffffffffffffff000000000000000000000000000000000000000060015416176001557fed8889f560326eb138920d842192f0eb3dd22b4f139c87a2c57538e05bae1278600080a3005b600080fd5b3461013c57600060031936011261013c576020600754604051908152f35b3461013c57600060031936011261013c5773ffffffffffffffffffffffffffffffffffffffff60035416600554600454610198816118e1565b916101a6604051938461150c565b81835260208301809260046000527f8a35acfbc15ff81a39ae7d344fd709f28e8600b4aa8c65c6b64bfe7fe36bd19b916000905b8282106103725750505050604051938493606085019185526060602086015251809152608084019060808160051b86010193916000905b828210610225575050505060408301520390f35b9193949092957fffffffffffffffffffffffffffffffffffffffffffffffffffffffffffffff8090820301825285519061012081018251906101208352815180915261014083019060206101408260051b86010193019160005b82811061032b575050505061031a836020936101006102f46102e26102c66102b489988960019c01518782038b89015261149c565b6040870151868203604088015261149c565b606086015160608601526080860151858203608087015261149c565b60a085015184820360a086015261149c565b9260c081015160c084015260e081015160e084015201519061010081840391015261149c565b970192019201869594939192610211565b90919293602080610366837ffffffffffffffffffffffffffffffffffffffffffffffffffffffffffffffec08a60019603018752885161149c565b9601949301910161027f565b6040979495969751610120810181811067ffffffffffffffff82111761047b5760405284546103a0816118e1565b906103ae604051928361150c565b80825260208201876000526020600020906000905b83821061045e575050505060019282602092600994526103e48589016118f9565b838201526103f4600289016118f9565b60408201526003880154606082015261040f600489016118f9565b6080820152610420600589016118f9565b60a0820152600688015460c0820152600788015460e0820152610445600889016118f9565b61010082015281520194019101909296959493966101da565b60016020819261046d866118f9565b8152019301910190916103c3565b634e487b7160e01b600052604160045260246000fd5b3461013c57600060031936011261013c576020600654604051908152f35b3461013c57600060031936011261013c57602073ffffffffffffffffffffffffffffffffffffffff60005416604051908152f35b3461013c57600060031936011261013c5760015473ffffffffffffffffffffffffffffffffffffffff81163303610584577fffffffffffffffffffffffff00000000000000000000000000000000000000006000549133828416176000551660015573ffffffffffffffffffffffffffffffffffffffff3391167f8be0079c531659141344cd1fd0a4f28419497f9722a3daafe3b4186f6b6457e0600080a3005b606460405162461bcd60e51b815260206004820152601660248201527f4d7573742062652070726f706f736564206f776e6572000000000000000000006044820152fd5b3461013c57606060031936011261013c5760043567ffffffffffffffff811161013c573660238201121561013c57806004013567ffffffffffffffff811161013c576024820191602436918360051b01011161013c576044359160243567ffffffffffffffff841161013c573660238501121561013c5783600401359367ffffffffffffffff851161013c57366024868301011161013c5773ffffffffffffffffffffffffffffffffffffffff60025416602060405180927f4ff6338c00000000000000000000000000000000000000000000000000000000825281806106b4888b8b60048501611582565b03915afa8015611157576111bd575b5083156111a75760606106d68480611793565b013560075403611163576006549060206000610727604051838101903382524660408201523060608201528660808201526080815261071660a08261150c565b604051928392839251928391611479565b8101039060025afa156111575761075c9561074d610753926000519260243692016117c6565b906119b9565b909691966119f5565b60009473ffffffffffffffffffffffffffffffffffffffff8061079661078f6107858880611793565b608081019061180d565b36916117c6565b60208151910120169116036111135760001981146110ff5760010160065560035492337fffffffffffffffffffffffff00000000000000000000000000000000000000008516176003556801000000000000000081116110eb5760045481600455808210610fc1575b5060048552847f8a35acfbc15ff81a39ae7d344fd709f28e8600b4aa8c65c6b64bfe7fe36bd19b845b83831061088757505050907f2ff02e3194f5700f91a1e89169623293cdf4b5529c368e4810b3b8593203c8cc918160055561088160405192839273ffffffffffffffffffffffffffffffffffffffff3398169684611582565b0390a380f35b6108918187611793565b8035601e1982360301811215610fbd57810180359067ffffffffffffffff8211610fb9576020018160051b36038113610fb957680100000000000000008211610bd8578454828655808310610f8c575b5080858c5260208c20918c915b848310610e5f5750505050506001830161090b602083018361180d565b67ffffffffffffffff8111610c8c578b6109258454611840565b601f8111610e2f575b50918c601f8311600114610dca5761095c93909183610bec575b50506000198260011b9260031b1c19161790565b90555b60028301610970604083018361180d565b67ffffffffffffffff8111610c8c578b61098a8454611840565b601f8111610d9a575b50918c601f8311600114610d35576109c093909183610bec5750506000198260011b9260031b1c19161790565b90555b60608101356003840155600483016109de608083018361180d565b67ffffffffffffffff8111610c8c578b6109f88454611840565b601f8111610d05575b50918c601f8311600114610ca057610a2e93909183610bec5750506000198260011b9260031b1c19161790565b90555b60058301610a4260a083018361180d565b67ffffffffffffffff8111610c8c578b610a5c8454611840565b601f8111610c5c575b50918c601f8311600114610bf757610a9293909183610bec5750506000198260011b9260031b1c19161790565b90555b60c0810135600684015560e08101356007840155610abc600884019161010081019061180d565b9067ffffffffffffffff8211610bd857610ad68354611840565b601f8111610b9d575b508a908b601f8411600114610b3157836020946001979460099794610b179492610b265750506000198260011b9260031b1c19161790565b90555b01920192019190610828565b013590508f80610948565b50838c5260208c2091601f1984168d5b818110610b85575093600196936009969388938360209810610b6b575b505050811b019055610b1a565b60001960f88560031b161c199101351690558e8080610b5e565b91936020600181928787013581550195019201610b41565b610bc890848d5260208d20601f850160051c81019160208610610bce575b601f0160051c019061187a565b8b610adf565b9091508190610bbb565b60248b634e487b7160e01b81526041600452fd5b013590508d80610948565b9192601f19841685845260208420935b818110610c445750908460019594939210610c2a575b505050811b019055610a95565b60001960f88560031b161c199101351690558c8080610c1d565b91936020600181928787013581550195019201610c07565b60208286610c85945220601f840160051c81019160208510610bce57601f0160051c019061187a565b8b8d610a65565b60248c634e487b7160e01b81526041600452fd5b9192601f19841685845260208420935b818110610ced5750908460019594939210610cd3575b505050811b019055610a31565b60001960f88560031b161c199101351690558c8080610cc6565b91936020600181928787013581550195019201610cb0565b60208286610d2e945220601f840160051c81019160208510610bce57601f0160051c019061187a565b8b8d610a01565b9192601f19841685845260208420935b818110610d825750908460019594939210610d68575b505050811b0190556109c3565b60001960f88560031b161c199101351690558c8080610d5b565b91936020600181928787013581550195019201610d45565b60208286610dc3945220601f840160051c81019160208510610bce57601f0160051c019061187a565b8b8d610993565b9192601f19841685845260208420935b818110610e175750908460019594939210610dfd575b505050811b01905561095f565b60001960f88560031b161c199101351690558c8080610df0565b91936020600181928787013581550195019201610dda565b60208286610e58945220601f840160051c81019160208510610bce57601f0160051c019061187a565b8b8d61092e565b610e69818361180d565b9067ffffffffffffffff8211610f77578f90610e858754611840565b601f8111610f47575b5081601f8411600114610edd578360019592946020948796610ec39492610ed25750506000198260011b9260031b1c19161790565b87555b019401920191926108ee565b013590503880610948565b91601f19841688845260208420935b818110610f2f5750936020936001969387969383889510610f15575b505050811b018755610ec6565b60001960f88560031b161c19910135169055388080610f08565b91936020600181928787013581550195019201610eec565b610f719088845260208420601f860160051c81019160208710610bce57601f0160051c019061187a565b38610e8e565b5060248f634e487b7160e01b81526041600452fd5b858c528260208d2091820191015b818110610fa757506108e1565b80610fb3600192611891565b01610f9a565b8a80fd5b8980fd5b806009029060098204036110d75781600902906009820483036110c357600487527f8a35acfbc15ff81a39ae7d344fd709f28e8600b4aa8c65c6b64bfe7fe36bd19b01907f8a35acfbc15ff81a39ae7d344fd709f28e8600b4aa8c65c6b64bfe7fe36bd19b015b81811061103557506107ff565b805487825580611098575b5080611050600160099301611891565b61105c60028201611891565b87600382015561106e60048201611891565b61107a60058201611891565b87600682015587600782015561109260088201611891565b01611028565b81885260208820908101905b8181106110b15750611040565b806110bd600192611891565b016110a4565b602487634e487b7160e01b81526011600452fd5b602486634e487b7160e01b81526011600452fd5b602485634e487b7160e01b81526041600452fd5b602485634e487b7160e01b81526011600452fd5b606460405162461bcd60e51b815260206004820152601660248201527f496e76616c69642064617461207369676e6174757265000000000000000000006044820152fd5b6040513d6000823e3d90fd5b606460405162461bcd60e51b815260206004820152601860248201527f4f6e6c7920617574686f72697a656420736f6c7574696f6e00000000000000006044820152fd5b634e487b7160e01b600052603260045260246000fd5b6020813d6020116111e4575b816111d66020938361150c565b8101031261013c57516106c3565b3d91506111c9565b3461013c57600060031936011261013c57602073ffffffffffffffffffffffffffffffffffffffff60025416604051908152f35b3461013c57602060031936011261013c5760043573ffffffffffffffffffffffffffffffffffffffff811680910361013c5761127573ffffffffffffffffffffffffffffffffffffffff6000541633146114c1565b80156112e3577fffffffffffffffffffffffff00000000000000000000000000000000000000006002548273ffffffffffffffffffffffffffffffffffffffff82167fc8b1d729ea7c9a12c8ebcaf5bbb64f5a001f331261d068920947589040a2d954600080a31617600255005b608460405162461bcd60e51b815260206004820152602360248201527f6365727456657269666965722063616e6e6f74206265207a65726f206164647260448201527f65737300000000000000000000000000000000000000000000000000000000006064820152fd5b3461013c57602060031936011261013c5760043573ffffffffffffffffffffffffffffffffffffffff811680910361013c5760209073ffffffffffffffffffffffffffffffffffffffff6003541614604051908152f35b3461013c57602060031936011261013c576004356113db73ffffffffffffffffffffffffffffffffffffffff6000541633146114c1565b801561140f57806007547fb134f848761a2f3e71de218780593a57ad2bd1ab2139bede1c142ca96c822599600080a3600755005b608460405162461bcd60e51b815260206004820152602560248201527f417574686f72697a6564536f6c7574696f6e486173682063616e6e6f7420626560448201527f207a65726f0000000000000000000000000000000000000000000000000000006064820152fd5b60005b83811061148c5750506000910152565b818101518382015260200161147c565b90601f19601f6020936114ba81518092818752878088019101611479565b0116010190565b156114c857565b606460405162461bcd60e51b815260206004820152601660248201527f4f6e6c792063616c6c61626c65206279206f776e6572000000000000000000006044820152fd5b90601f601f19910116810190811067ffffffffffffffff82111761047b57604052565b601f8260209493601f19938186528686013760008582860101520116010190565b9035601e198236030181121561013c57016020813591019167ffffffffffffffff821161013c57813603831361013c57565b939291806040860160408752526060850160608260051b87010191836000907ffffffffffffffffffffffffffffffffffffffffffffffffffffffffffffffee1813603015b8383106115dc57505050505060209150930152565b90919293947fffffffffffffffffffffffffffffffffffffffffffffffffffffffffffffffa08a820301865286358281121561013c5783019061012081018235601e198436030181121561013c5783016020813591019167ffffffffffffffff821161013c578160051b90813603841361013c576101208552829052830161014090810192919084018260005b838110611741575050505050611732836020936117236117036116e86116c36116a8899861169b8a60019d0189611550565b908883038c8a015261152f565b6116b56040880188611550565b90878303604089015261152f565b606086013560608601526116da6080870187611550565b90868303608088015261152f565b6116f560a0860186611550565b9085830360a087015261152f565b9260c081013560c084015260e081013560e0840152610100810190611550565b9161010081850391015261152f565b980197960194930191906115c7565b9091929394602080611786837ffffffffffffffffffffffffffffffffffffffffffffffffffffffffffffffec08b600196030188526117808a88611550565b9061152f565b9701959401929101611669565b9035907ffffffffffffffffffffffffffffffffffffffffffffffffffffffffffffffee18136030182121561013c570190565b92919267ffffffffffffffff821161047b57604051916117f06020601f19601f840116018461150c565b82948184528183011161013c578281602093846000960137010152565b903590601e198136030182121561013c570180359067ffffffffffffffff821161013c5760200191813603831361013c57565b90600182811c92168015611870575b602083101461185a57565b634e487b7160e01b600052602260045260246000fd5b91607f169161184f565b818110611885575050565b6000815560010161187a565b61189b8154611840565b90816118a5575050565b81601f600093116001146118b85750555b565b818352602083206118d491601f0160051c81019060010161187a565b8082528160208120915555565b67ffffffffffffffff811161047b5760051b60200190565b906040519182600082549261190d84611840565b80845293600181169081156119795750600114611932575b506118b69250038361150c565b90506000929192526020600020906000915b81831061195d5750509060206118b69282010138611925565b6020919350806001915483858901015201910190918492611944565b602093506118b69592507fffffffffffffffffffffffffffffffffffffffffffffffffffffffffffffff0091501682840152151560051b82010138611925565b81519190604183036119ea576119e392506020820151906060604084015193015160001a90611ac8565b9192909190565b505060009160029190565b9190916004811015611ab25780611a0b57509050565b600060018203611a3f577ff645eedf0000000000000000000000000000000000000000000000000000000060005260046000fd5b5060028103611a7657827ffce698f70000000000000000000000000000000000000000000000000000000060005260045260246000fd5b9091600360009214611a86575050565b602492507fd78bce0c000000000000000000000000000000000000000000000000000000008252600452fd5b634e487b7160e01b600052602160045260246000fd5b91907f7fffffffffffffffffffffffffffffff5d576e7357a4501ddfe92f46681b20a08411611b52579160209360809260ff60009560405194855216868401526040830152606082015282805260015afa156111575760005173ffffffffffffffffffffffffffffffffffffffff811615611b465790600090600090565b50600090600190600090565b5050506000916003919056fea26469706673582212201671f1c43dc5c8346d69577e963c6aabefb6c83c0455b001df73dd691166b3ee64736f6c634300081e0033",
  "linkReferences": {},
  "deployedLinkReferences": {}
}