{
  "_format": "hh-sol-artifact-1",
  "contractName": "CertificateVerifier",
  "sourceName": "contract/CertificateVerifier.sol",
  "abi": [
    {
      "anonymous": false,
      "inputs": [
        {
          "indexed": true,
          "internalType": "bytes32",
          "name": "mrEnclave",
          "type": "bytes32"
        },
        {
          "indexed": true,
          "internalType": "bool",
          "name": "isBlacklisted",
          "type": "bool"
        }
      ],
      "name": "MrEnclaveBlacklisted",
      "type": "event"
    },
    {
      "anonymous": false,
      "inputs": [
        {
          "indexed": true,
          "internalType": "bytes32",
          "name": "mrSigner",
          "type": "bytes32"
        },
        {
          "indexed": true,
          "internalType": "bool",
          "name": "isBlacklisted",
          "type": "bool"
        }
      ],
      "name": "MrSignerBlacklisted",
      "type": "event"
    },
    {
      "anonymous": false,
      "inputs": [
        {
          "indexed": true,
          "internalType": "address",
          "name": "from",
          "type": "address"
        },
        {
          "indexed": true,
          "internalType": "address",
          "name": "to",
          "type": "address"
        }
      ],
      "name": "OwnershipTransferRequested",
      "type": "event"
    },
    {
      "anonymous": false,
      "inputs": [
        {
          "indexed": true,
          "internalType": "address",
          "name": "from",
          "type": "address"
        },
        {
          "indexed": true,
          "internalType": "address",
          "name": "to",
          "type": "address"
        }
      ],
      "name": "OwnershipTransferred",
      "type": "event"
    },
    {
      "anonymous": false,
      "inputs": [
        {
          "indexed": true,
          "internalType": "bytes",
          "name": "serialNumber",
          "type": "bytes"
        },
        {
          "indexed": true,
          "internalType": "bool",
          "name": "isBlacklisted",
          "type": "bool"
        }
      ],
      "name": "SerialNumberBlacklisted",
      "type": "event"
    },
    {
      "anonymous": false,
      "inputs": [
        {
          "indexed": true,
          "internalType": "uint256",
          "name": "serialNumber",
          "type": "uint256"
        }
      ],
      "name": "SetRootCert",
      "type": "event"
    },
    {
      "inputs": [],
      "name": "acceptOwnership",
      "outputs": [],
      "stateMutability": "nonpayable",
      "type": "function"
    },
    {
      "inputs": [],
      "name": "getCertsBlacklist",
      "outputs": [
        {
          "internalType": "bytes[]",
          "name": "bySerialNumber",
          "type": "bytes[]"
        },
        {
          "internalType": "bytes32[]",
          "name": "byMrEnclave",
          "type": "bytes32[]"
        },
        {
          "internalType": "bytes32[]",
          "name": "byMrSigner",
          "type": "bytes32[]"
        }
      ],
      "stateMutability": "view",
      "type": "function"
    },
    {
      "inputs": [
        {
          "internalType": "uint256",
          "name": "rootCertId",
          "type": "uint256"
        }
      ],
      "name": "getRootCert",
      "outputs": [
        {
          "components": [
            {
              "internalType": "bytes[]",
              "name": "nonSerializedParts",
              "type": "bytes[]"
            },
            {
              "internalType": "bytes",
              "name": "expirationDate",
              "type": "bytes"
            },
            {
              "internalType": "bytes",
              "name": "ca",
              "type": "bytes"
            },
            {
              "internalType": "bytes32",
              "name": "userData",
              "type": "bytes32"
            },
            {
              "internalType": "bytes",
              "name": "publicKey",
              "type": "bytes"
            },
            {
              "internalType": "bytes",
              "name": "serialNumber",
              "type": "bytes"
            },
            {
              "internalType": "bytes32",
              "name": "mrEnclave",
              "type": "bytes32"
            },
            {
              "internalType": "bytes32",
              "name": "mrSigner",
              "type": "bytes32"
            },
            {
              "internalType": "bytes",
              "name": "signature",
              "type": "bytes"
            }
          ],
          "internalType": "struct ChunkedX509Cert",
          "name": "",
          "type": "tuple"
        }
      ],
      "stateMutability": "view",
      "type": "function"
    },
    {
      "inputs": [
        {
          "internalType": "bytes",
          "name": "serialNumber",
          "type": "bytes"
        },
        {
          "internalType": "bytes32",
          "name": "mrEnclave",
          "type": "bytes32"
        },
        {
          "internalType": "bytes32",
          "name": "mrSigner",
          "type": "bytes32"
        }
      ],
      "name": "isCertBlacklisted",
      "outputs": [
        {
          "internalType": "bool",
          "name": "",
          "type": "bool"
        }
      ],
      "stateMutability": "view",
      "type": "function"
    },
    {
      "inputs": [],
      "name": "owner",
      "outputs": [
        {
          "internalType": "address payable",
          "name": "",
          "type": "address"
        }
      ],
      "stateMutability": "view",
      "type": "function"
    },
    {
      "inputs": [
        {
          "components": [
            {
              "internalType": "bytes",
              "name": "item",
              "type": "bytes"
            },
            {
              "internalType": "bool",
              "name": "isBlacklisted",
              "type": "bool"
            }
          ],
          "internalType": "struct BytesBlacklist[]",
          "name": "serialNumberChanges",
          "type": "tuple[]"
        },
        {
          "components": [
            {
              "internalType": "bytes32",
              "name": "item",
              "type": "bytes32"
            },
            {
              "internalType": "bool",
              "name": "isBlacklisted",
              "type": "bool"
            }
          ],
          "internalType": "struct Bytes32Blacklist[]",
          "name": "mrEnclaveChanges",
          "type": "tuple[]"
        },
        {
          "components": [
            {
              "internalType": "bytes32",
              "name": "item",
              "type": "bytes32"
            },
            {
              "internalType": "bool",
              "name": "isBlacklisted",
              "type": "bool"
            }
          ],
          "internalType": "struct Bytes32Blacklist[]",
          "name": "mrSignerChanges",
          "type": "tuple[]"
        }
      ],
      "name": "setCertsBlacklist",
      "outputs": [],
      "stateMutability": "nonpayable",
      "type": "function"
    },
    {
      "inputs": [
        {
          "components": [
            {
              "internalType": "bytes[]",
              "name": "nonSerializedParts",
              "type": "bytes[]"
            },
            {
              "internalType": "bytes",
              "name": "expirationDate",
              "type": "bytes"
            },
            {
              "internalType": "bytes",
              "name": "ca",
              "type": "bytes"
            },
            {
              "internalType": "bytes32",
              "name": "userData",
              "type": "bytes32"
            },
            {
              "internalType": "bytes",
              "name": "publicKey",
              "type": "bytes"
            },
            {
              "internalType": "bytes",
              "name": "serialNumber",
              "type": "bytes"
            },
            {
              "internalType": "bytes32",
              "name": "mrEnclave",
              "type": "bytes32"
            },
            {
              "internalType": "bytes32",
              "name": "mrSigner",
              "type": "bytes32"
            },
            {
              "internalType": "bytes",
              "name": "signature",
              "type": "bytes"
            }
          ],
          "internalType": "struct ChunkedX509Cert",
          "name": "cert",
          "type": "tuple"
        }
      ],
      "name": "setRootCert",
      "outputs": [],
      "stateMutability": "nonpayable",
      "type": "function"
    },
    {
      "inputs": [],
      "name": "totalRootCertificates",
      "outputs": [
        {
          "internalType": "uint256",
          "name": "",
          "type": "uint256"
        }
      ],
      "stateMutability": "view",
      "type": "function"
    },
    {
      "inputs": [
        {
          "internalType": "address",
          "name": "_to",
          "type": "address"
        }
      ],
      "name": "transferOwnership",
      "outputs": [],
      "stateMutability": "nonpayable",
      "type": "function"
    },
    {
      "inputs": [
        {
          "components": [
            {
              "internalType": "bytes[]",
              "name": "nonSerializedParts",
              "type": "bytes[]"
            },
            {
              "internalType": "bytes",
              "name": "expirationDate",
              "type": "bytes"
            },
            {
              "internalType": "bytes",
              "name": "ca",
              "type": "bytes"
            },
            {
              "internalType": "bytes32",
              "name": "userData",
              "type": "bytes32"
            },
            {
              "internalType": "bytes",
              "name": "publicKey",
              "type": "bytes"
            },
            {
              "internalType": "bytes",
              "name": "serialNumber",
              "type": "bytes"
            },
            {
              "internalType": "bytes32",
              "name": "mrEnclave",
              "type": "bytes32"
            },
            {
              "internalType": "bytes32",
              "name": "mrSigner",
              "type": "bytes32"
            },
            {
              "internalType": "bytes",
              "name": "signature",
              "type": "bytes"
            }
          ],
          "internalType": "struct ChunkedX509Cert",
          "name": "cert",
          "type": "tuple"
        },
        {
          "internalType": "bytes",
          "name": "caPubKey",
          "type": "bytes"
        }
      ],
      "name": "verifyCert",
      "outputs": [
        {
          "internalType": "bytes32",
          "name": "certHash",
          "type": "bytes32"
        }
      ],
      "stateMutability": "view",
      "type": "function"
    },
    {
      "inputs": [
        {
          "components": [
            {
              "internalType": "bytes[]",
              "name": "nonSerializedParts",
              "type": "bytes[]"
            },
            {
              "internalType": "bytes",
              "name": "expirationDate",
              "type": "bytes"
            },
            {
              "internalType": "bytes",
              "name": "ca",
              "type": "bytes"
            },
            {
              "internalType": "bytes32",
              "name": "userData",
              "type": "bytes32"
            },
            {
              "internalType": "bytes",
              "name": "publicKey",
              "type": "bytes"
            },
            {
              "internalType": "bytes",
              "name": "serialNumber",
              "type": "bytes"
            },
            {
              "internalType": "bytes32",
              "name": "mrEnclave",
              "type": "bytes32"
            },
            {
              "internalType": "bytes32",
              "name": "mrSigner",
              "type": "bytes32"
            },
            {
              "internalType": "bytes",
              "name": "signature",
              "type": "bytes"
            }
          ],
          "internalType": "struct ChunkedX509Cert[]",
          "name": "certsChain",
          "type": "tuple[]"
        },
        {
          "internalType": "uint256",
          "name": "rootCertId",
          "type": "uint256"
        }
      ],
      "name": "verifyCertChain",
      "outputs": [
        {
          "internalType": "bytes32",
          "name": "leafCertHash",
          "type": "bytes32"
        }
      ],
      "stateMutability": "view",
      "type": "function"
    }
  ],
  "bytecode": "0x60808060405234602757600080546001600160a01b0319163317905561377c908161002d8239f35b600080fdfe60e0604052600436101561001257600080fd5b60003560e01c806349e9f6fc146117f05780634ff6338c1461153957806358b06f631461137957806379ba5097146112945780638206854f1461122b5780638da5cb5b146111f7578063ad08084814610aa6578063adf99772146107f9578063ec8def131461015f578063f15a51fd146101415763f2fde38b1461009557600080fd5b3461013c57602060031936011261013c5760043573ffffffffffffffffffffffffffffffffffffffff811680910361013c5773ffffffffffffffffffffffffffffffffffffffff600054166100eb8133146120f2565b817fffffffffffffffffffffffff000000000000000000000000000000000000000060015416176001557fed8889f560326eb138920d842192f0eb3dd22b4f139c87a2c57538e05bae1278600080a3005b600080fd5b3461013c57600060031936011261013c576020600354604051908152f35b3461013c57606060031936011261013c5760043567ffffffffffffffff811161013c576101909036906004016118e2565b60243567ffffffffffffffff811161013c576101b090369060040161198f565b919060443567ffffffffffffffff811161013c576101d590939293369060040161198f565b90916101fa73ffffffffffffffffffffffffffffffffffffffff6000541633146120f2565b6000937fffffffffffffffffffffffffffffffffffffffffffffffffffffffffffffffc187360301945b868110156104dc5760008160051b890135878112156104d8578901602081019061024d8261213d565b156102c757907ffe5079ecc444a7e043f3e3fbb10e833061dfa71e36d34eb264d09e1276701e9c6102a96102a18461029b61029661028f8360019b9a99611bcc565b369161187d565b613248565b80611bcc565b91909361213d565b9281604051928392833781018581520390209115159280a301610224565b6102d461028f8280611bcc565b6102dd816121c8565b610315575b50907ffe5079ecc444a7e043f3e3fbb10e833061dfa71e36d34eb264d09e1276701e9c6102a96102a1600196959461029b565b61031e8161215a565b5461033161032b82612180565b50611aa7565b60208151910120825160208401200361046e57600554600019810190811161045a57916103869161038061036861032b8996612180565b61037b8161037585612180565b9061316a565b61215a565b5561215a565b556005548015610446576000190161039d81612180565b610433576102a18594937ffe5079ecc444a7e043f3e3fbb10e833061dfa71e36d34eb264d09e1276701e9c9360019897846103db6102a99654611a6d565b806103f3575b505050600555939495965050506102e2565b601f81118c146104085750555b8638806103e1565b8183526020832061042391601f0160051c8101908d0161310e565b8082528160208120915555610400565b602485634e487b7160e01b815280600452fd5b602484634e487b7160e01b81526031600452fd5b602486634e487b7160e01b81526011600452fd5b608460405162461bcd60e51b815260206004820152602160248201527f3530302e20556e65787065637465642055696e7448617368536574207374617460448201527f65000000000000000000000000000000000000000000000000000000000000006064820152fd5b5080fd5b5060005b8181106106d05750505060005b8181106104f657005b61050181838561214a565b9060208201916105108361213d565b156105595761052a60019361052583356133bb565b61213d565b151590357fbe2830c2908ac0f4241f803f64882373d4deec683e4e19ff8088040446c6daf1600080a3016104ed565b8035610566816008612319565b610577575b5061052a60019361213d565b806000526008602052604060002054816105928260096121b0565b90549060031b1c03610667576009546000198101908111610651576105b89060096121b0565b90549060031b1c806105e56105ce8460096121b0565b81939154906000199060031b92831b921b19161790565b90556000526008602052604060002055600052600860205260006040812055600954801561063b5760019360001961052a92016106238160096121b0565b60001982549160031b1b19169055600955935061056b565b634e487b7160e01b600052603160045260246000fd5b634e487b7160e01b600052601160045260246000fd5b608460405162461bcd60e51b8152602060048201526024808201527f3530302e20556e6578706563746564204279746573333248617368536574207360448201527f74617465000000000000000000000000000000000000000000000000000000006064820152fd5b6106db81838561214a565b9060208201916106ea8361213d565b1561072e576106ff6001936105258335613324565b151590357f57cf5e3ec50b30d0df8fc02a55cb242580536f68a7b04eda9714a8e68f041540600080a3016104e0565b803561073b816006612319565b61074c575b506106ff60019361213d565b806000526006602052604060002054816107678260076121b0565b90549060031b1c036106675760075460001981019081116106515761078d9060076121b0565b90549060031b1c806107a36105ce8460076121b0565b90556000526006602052604060002055600052600660205260006040812055600754801561063b576001936000196106ff92016107e18160076121b0565b60001982549160031b1b191690556007559350610740565b3461013c57602060031936011261013c57600435606061010060405161081e8161183d565b8281528260208201528260408201526000838201528260808201528260a0820152600060c0820152600060e0820152015261085c6003548210611a22565b60005260026020526040600020604051906108768261183d565b805467ffffffffffffffff8111610a90576040519061089b60208260051b018361185a565b808252602082018360005260206000206000915b838310610a73575050505082526108c860018201611aa7565b602083019081526108db60028301611aa7565b9160408401928352600381015492606085019384526108fc60048301611aa7565b916080860192835261091060058201611aa7565b9460a0870195865260068201549360c0880194855261093d600860078501549460e08b0195865201611aa7565b93610100890194855260405198899760208952610140890191519161012060208b015282518091526101608a019060206101608260051b8d01019401916000905b828210610a175750505050926109c66109df936109b36109f297948c610a139d9e9851906040601f1982850301910152611936565b90518c8203601f190160608e0152611936565b915160808b015251601f198a83030160a08b0152611936565b9051601f198883030160c0890152611936565b925160e08601525161010085015251601f1984830301610120850152611936565b0390f35b9193946020610a5b6001939598999a9b9d9f9c9e927ffffffffffffffffffffffffffffffffffffffffffffffffffffffffffffffea0839482030186528951611936565b9701920192018d9b999c9a989796959493919261097e565b600160208192610a8285611aa7565b8152019201920191906108af565b634e487b7160e01b600052604160045260246000fd5b3461013c57602060031936011261013c5760043567ffffffffffffffff811161013c5780600401610120600319833603011261013c57610aff73ffffffffffffffffffffffffffffffffffffffff6000541633146120f2565b60035490604483017fcb2f71c9ef995d87658a71a28d767bc3082881f0860c106764e59e48525c4c73610b3561028f8385611bcc565b602081519101200361118d5760848401610b5b610b5561028f8386611bcc565b84611cbf565b50836000526002602052604060002091610b758480611c1d565b680100000000000000008111610a9057845481865580821061110f575b5060008581526020812092805b83831061102657505050505060018301610bbc6024880186611bcc565b9067ffffffffffffffff8211610a9057610be082610bda8554611a6d565b85613125565b600090601f8311600114610fc257610c10929160009183610fb7575b50506000198260011b9260031b1c19161790565b90555b610c21600284019185611bcc565b9067ffffffffffffffff8211610a9057610c3f82610bda8554611a6d565b600090601f8311600114610f5357610c6e929160009183610f485750506000198260011b9260031b1c19161790565b90555b60648501356003830155610c89600483019184611bcc565b9067ffffffffffffffff8211610a9057610ca782610bda8554611a6d565b600090601f8311600114610ee457610cd6929160009183610ed95750506000198260011b9260031b1c19161790565b90555b60058101610cea60a4860184611bcc565b9067ffffffffffffffff8211610a9057610d0882610bda8554611a6d565b600090601f8311600114610e6a5792610d4383600894610d6398979461010497600092610e5f5750506000198260011b9260031b1c19161790565b90555b60c4870135600682015560e4870135600782015501940190611bcc565b67ffffffffffffffff8194929411610a9057610d8981610d838454611a6d565b84613125565b6000601f8211600114610dfc578190610db9939495600092610df15750506000198260011b9260031b1c19161790565b90555b610dc7600354611cb0565b6003557f507183750cb72035c1a24322484efc1b8c40c4a6353bce48ce1c3711f4e91bfc600080a2005b013590508580610bfc565b601f198216948382526020822091805b878110610e47575083600195969710610e2d575b505050811b019055610dbc565b60001960f88560031b161c19910135169055848080610e20565b90926020600181928686013581550194019101610e0c565b013590508b80610bfc565b8382526020822091601f198416815b818110610ec1575093610d6397969361010496936001938360089810610ea7575b505050811b019055610d46565b60001960f88560031b161c199101351690558a8080610e9a565b91936020600181928787013581550195019201610e79565b013590508880610bfc565b8382526020822091601f198416815b818110610f305750908460019594939210610f16575b505050811b019055610cd9565b60001960f88560031b161c19910135169055878080610f09565b91936020600181928787013581550195019201610ef3565b013590508980610bfc565b8382526020822091601f198416815b818110610f9f5750908460019594939210610f85575b505050811b019055610c71565b60001960f88560031b161c19910135169055888080610f78565b91936020600181928787013581550195019201610f62565b013590508a80610bfc565b8382526020822091601f198416815b81811061100e5750908460019594939210610ff4575b505050811b019055610c13565b60001960f88560031b161c19910135169055898080610fe7565b91936020600181928787013581550195019201610fd1565b6110308183611bcc565b9067ffffffffffffffff8211610a90576110548261104e8954611a6d565b89613125565b600090601f83116001146110a5579261108b8360019594602094879660009261109a5750506000198260011b9260031b1c19161790565b88555b01950192019193610b9f565b013590503880610bfc565b8782526020822091601f198416815b8181106110f757509360209360019693879693838895106110dd575b505050811b01885561108e565b60001960f88560031b161c199101351690553880806110d0565b919360206001819287870135815501950192016110b4565b8560005281602060002091820191015b81811061112c5750610b92565b6001906111398154611a6d565b80611146575b500161111f565b601f8111831461115c5750600081555b8b61113f565b61117a908260005283601f6020600020920160051c8201910161310e565b8060005260006020812081835555611156565b608460405162461bcd60e51b815260206004820152602b60248201527f526f6f742063657274696669636174652063616e6e6f74206265206e6f6e2d6960448201527f6e7465726d6564696174650000000000000000000000000000000000000000006064820152fd5b3461013c57600060031936011261013c57602073ffffffffffffffffffffffffffffffffffffffff60005416604051908152f35b3461013c57604060031936011261013c5760043567ffffffffffffffff811161013c57610120600319823603011261013c5760243567ffffffffffffffff811161013c5760209161128361128c9236906004016118c4565b90600401611cbf565b604051908152f35b3461013c57600060031936011261013c5760015473ffffffffffffffffffffffffffffffffffffffff81163303611335577fffffffffffffffffffffffff00000000000000000000000000000000000000006000549133828416176000551660015573ffffffffffffffffffffffffffffffffffffffff3391167f8be0079c531659141344cd1fd0a4f28419497f9722a3daafe3b4186f6b6457e0600080a3005b606460405162461bcd60e51b815260206004820152601660248201527f4d7573742062652070726f706f736564206f776e6572000000000000000000006044820152fd5b3461013c57600060031936011261013c5760055467ffffffffffffffff8111610a90576040516113af60208360051b018261185a565b818152600560009081526020820192907f036b6384b5eca791c62761152d0c79bb0604c104a5fb6f4eb0703f3154bb3db0845b83831061151c578585604051916007548084528360208101600760005260206000209260005b81811061150357505061141d9250038461185a565b604051926009548085528460208101600960005260206000209260005b8181106114ea57505061144f9250038561185a565b6040519260608401906060855251809152608084019060808160051b86010193916000905b8282106114a1578680610a138a6114938a8a858203602087015261195b565b90838203604085015261195b565b909192946020806114dc837fffffffffffffffffffffffffffffffffffffffffffffffffffffffffffffff808b600196030186528951611936565b970192019201909291611474565b845483526001948501948994506020909301920161143a565b8454835260019485019488945060209093019201611408565b60016020819261152b85611aa7565b8152019201920191906113e2565b3461013c57604060031936011261013c5760043567ffffffffffffffff811161013c5761156a9036906004016118e2565b906024359061157c6003548310611a22565b60009183156117ac57600052600260205260406000206115b160068201546007830154906115ac60058501611aa7565b6119c0565b611768576115c96115c460018301611aa7565b61235f565b4210156117245760046115dc9101611aa7565b600091600019850191858311925b8685106115fc57602086604051908152f35b9091929394846106515785821461171d576001860180871161065157611623908886611b76565b907fcb2f71c9ef995d87658a71a28d767bc3082881f0860c106764e59e48525c4c7361166661028f61165b61028f6080870187611bcc565b946040810190611bcc565b60208151910120036116b3575b8661169b575061168f60019161168a888a88611b76565b611cbf565b955b01939291906115ea565b956116ad60019261168a838b89611b76565b50611691565b608460405162461bcd60e51b815260206004820152602e60248201527f496e7465726d65646961746520636572746966696361746520646f6573206e6f60448201527f74206861766520636120666c61670000000000000000000000000000000000006064820152fd5b8290611673565b606460405162461bcd60e51b815260206004820152601b60248201527f526f6f74206365727469666963617465206973206578706972656400000000006044820152fd5b606460405162461bcd60e51b815260206004820152601f60248201527f526f6f7420636572746966696361746520697320626c61636b6c6973746564006044820152fd5b606460405162461bcd60e51b815260206004820152602060248201527f6365727473436861696e2063616e6e6f7420626520656d7074792061727261796044820152fd5b3461013c57606060031936011261013c5760043567ffffffffffffffff811161013c5761183361182660209236906004016118c4565b60443590602435906119c0565b6040519015158152f35b610120810190811067ffffffffffffffff821117610a9057604052565b90601f601f19910116810190811067ffffffffffffffff821117610a9057604052565b92919267ffffffffffffffff8211610a9057604051916118a76020601f19601f840116018461185a565b82948184528183011161013c578281602093846000960137010152565b9080601f8301121561013c578160206118df9335910161187d565b90565b9181601f8401121561013c5782359167ffffffffffffffff831161013c576020808501948460051b01011161013c57565b60005b8381106119265750506000910152565b8181015183820152602001611916565b90601f19601f60209361195481518092818752878088019101611913565b0116010190565b906020808351928381520192019060005b8181106119795750505090565b825184526020938401939092019160010161196c565b9181601f8401121561013c5782359167ffffffffffffffff831161013c576020808501948460061b01011161013c57565b6119c9906121c8565b611a1b578015159081611a0b575b50611a055780151590816119f5575b506119f057600090565b600190565b6119ff91506122bf565b386119e6565b50600190565b611a159150612265565b386119d7565b5050600190565b15611a2957565b606460405162461bcd60e51b815260206004820152601d60248201527f526f6f74206365727469666963617465206973206e6f742065786973740000006044820152fd5b90600182811c92168015611a9d575b6020831014611a8757565b634e487b7160e01b600052602260045260246000fd5b91607f1691611a7c565b9060405191826000825492611abb84611a6d565b8084529360018116908115611b295750600114611ae2575b50611ae09250038361185a565b565b90506000929192526020600020906000915b818310611b0d575050906020611ae09282010138611ad3565b6020919350806001915483858901015201910190918492611af4565b60209350611ae09592507fffffffffffffffffffffffffffffffffffffffffffffffffffffffffffffff0091501682840152151560051b82010138611ad3565b9190820180921161065157565b9190811015611bb65760051b810135907ffffffffffffffffffffffffffffffffffffffffffffffffffffffffffffffee18136030182121561013c570190565b634e487b7160e01b600052603260045260246000fd5b9035907fffffffffffffffffffffffffffffffffffffffffffffffffffffffffffffffe18136030182121561013c570180359067ffffffffffffffff821161013c5760200191813603831361013c57565b9035907fffffffffffffffffffffffffffffffffffffffffffffffffffffffffffffffe18136030182121561013c570180359067ffffffffffffffff821161013c57602001918160051b3603831361013c57565b90821015611bb657611c889160051b810190611bcc565b9091565b926020809594611ca483959482815194859201611913565b01918237019081520190565b60001981146106515760010190565b60805260a060805101611cf1611cd782608051611bcc565b6115ac60e060805101359260c0608051013592369161187d565b6120ae5760206080510190611d0e6115c461028f84608051611bcc565b42101561206a57611d23608051608051611c1d565b60011015611bb657611d3c816020611d48930190611bcc565b60c05291608051611bcc565b611d59608093929351608051611c1d565b60021015611bb657611d72816040611d7d930190611bcc565b919095608051611bcc565b91611d8c608051608051611c1d565b60039291921015611bb657611e0797816020611dad85606089970190611bcc565b9a8b99919a60405160a05260c051908460a05101378160c05160a0510191848301600081523701019160008352823701916000835282370191600083528237016000815260a0519003601f19810160a0515260a05161185a565b60808051611e1791810190611bcc565b9190611e27608051608051611c1d565b60049291921015611bb657611e43826080611ea5940190611bcc565b90611e55604060805101608051611bcc565b928391928160206040519a8b988183611e7a8c60a05151928391018760a05101611913565b8b0191848301370101916000835282370191600083528237016000815203601f19810184528361185a565b819060059260606080510135908161201e575b505060c06080510135611fe0575b60e06080510135611f8e575b611ee0608051608051611c1d565b7ffffffffffffffffffffffffffffffffffffffffffffffffffffffffffffffffe81019491508411610651576118df938110611f32575b50611f2d61028f61010060805101608051611bcc565b612ec9565b60209192611f51611f8792611f4b608051608051611c1d565b90611c71565b8094916040519584611f6c889651809287808a019101611913565b8501918483013701016000815203601f19810183528261185a565b9038611f17565b9190611fc6611fd4611fda92611fac85611f4b608051608051611c1d565b93909160405194859360e060805101359260208601611c8c565b03601f19810183528261185a565b91611cb0565b91611ed2565b9190611fc6611fd461201892611ffe85611f4b608051608051611c1d565b93909160405194859360c060805101359260208601611c8c565b91611ec6565b909250612032608094929451608051611c1d565b90921015611bb657611fc661204e8360a0612060950190611bcc565b60409591955195869460208601611c8c565b6006913880611eb8565b606460405162461bcd60e51b815260206004820152601660248201527f43657274696669636174652069732065787069726564000000000000000000006044820152fd5b606460405162461bcd60e51b815260206004820152601a60248201527f436572746966696361746520697320626c61636b6c69737465640000000000006044820152fd5b156120f957565b606460405162461bcd60e51b815260206004820152601660248201527f4f6e6c792063616c6c61626c65206279206f776e6572000000000000000000006044820152fd5b35801515810361013c5790565b9190811015611bb65760061b0190565b6020612173918160405193828580945193849201611913565b8101600481520301902090565b600554811015611bb657600560005260206000200190600090565b805415611bb657600052602060002090600090565b8054821015611bb65760005260206000200190600090565b6005541561225f5760405190805191602081818401946121e9818388611913565b8101600481520301902054159182159261220257505090565b90915060006005541561224b576005905261223c7f036b6384b5eca791c62761152d0c79bb0604c104a5fb6f4eb0703f3154bb3db0611aa7565b60208151910120915190201490565b80634e487b7160e01b602492526032600452fd5b50600090565b6007541561225f578060005260066020526040600020541590811591612289575090565b905060006007541561224b57600790527fa66cc928b5edb82af9bd49922954155ab7b0942694bea4ce44661d9a8736c688541490565b6009541561225f5780600052600860205260406000205415908115916122e3575090565b905060006009541561224b57600990527f6e1540171b6c0c960b71a7020d9f60077f6af931a8bbf590da0223dacf75c7af541490565b9060018201918254156123575781600052602052604060002054159182159261234157505090565b61234c91925061219b565b90549060031b1c1490565b505050600090565b8051600d8103612b9357506002906000805b83821061290d57612394915060328110156129025761ffff6107d05b1690611b69565b905b6002830191828411610651576123ad838584613452565b92600091600486019182871161268657826123c89186613452565b95600681019283821161278757836123e09187613452565b92600882019081831161045a57816123f89188613452565b95600a830180931161045a579061240f9291613452565b946001871015806128ef575b156128ab57601883101561286757603c85101561282357603c8610156127df576107b2821061279b576000198201828111612787577ffffffffffffffffffffffffffffffffffffffffffffffffffffffffffffff89383019080821161045a577ffffffffffffffffffffffffffffffffffffffffffffffffffffffffffffff9bf840190808211612773577ffffffffffffffffffffffffffffffffffffffffffffffffffffffffffffff84f85019081116127735760649060021c9204820391821161045a57906101906124f0920490611b69565b7ffffffffffffffffffffffffffffffffffffffffffffffffffffffffffffff84e830183811161045a576301e133808102908082046301e13380149015171561045a576201518082029180830462015180149015171561045a579061255491611b69565b91818060011461276b57806002146127605780600314612755578060041461274a578060051461273f57806006146127345780600714612729578060081461271d57806009146127115780600a146127055780600b146126f957600c146126ee576001915b600183146126aa57600210908161269a575b50612677575b6125da91611b69565b946000198101908111612663576201518081029080820462015180149015171561266357610e10820291808304610e101490151715612663579061261d91611b69565b90603c830292808404603c149015171561264f575091612644612649926118df9594611b69565b611b69565b90611b69565b80634e487b7160e01b602492526011600452fd5b602483634e487b7160e01b81526011600452fd5b620151808101809111156125d1575b602484634e487b7160e01b81526011600452fd5b6126a49150613719565b386125cb565b606460405162461bcd60e51b815260206004820152600d60248201527f496e76616c6964206d6f6e7468000000000000000000000000000000000000006044820152fd5b6301b85500916125b9565b50630190c800916125b9565b50630167e980916125b9565b506301405c80916125b9565b506301177e00916125b9565b5062ee9f80916125b9565b5062c71280916125b9565b50629e3400916125b9565b506276a700916125b9565b50624dc880916125b9565b506228de80916125b9565b5084916125b9565b602487634e487b7160e01b81526011600452fd5b602485634e487b7160e01b81526011600452fd5b606460405162461bcd60e51b815260206004820152601460248201527f59656172206d757374206265203e3d20313937300000000000000000000000006044820152fd5b606460405162461bcd60e51b815260206004820152600f60248201527f496e76616c6964207365636f6e647300000000000000000000000000000000006044820152fd5b606460405162461bcd60e51b815260206004820152600f60248201527f496e76616c6964206d696e7574657300000000000000000000000000000000006044820152fd5b606460405162461bcd60e51b815260206004820152600d60248201527f496e76616c696420686f757273000000000000000000000000000000000000006044820152fd5b606460405162461bcd60e51b815260206004820152600b60248201527f496e76616c6964206461790000000000000000000000000000000000000000006044820152fd5b506128fa82826136ab565b87111561241b565b61ffff61076c61238d565b600a810290808204600a1490151715610651578251821015611bb6577fff000000000000000000000000000000000000000000000000000000000000006020838501015116807f300000000000000000000000000000000000000000000000000000000000000014612b8a57807f310000000000000000000000000000000000000000000000000000000000000014612b8157807f320000000000000000000000000000000000000000000000000000000000000014612b7957807f330000000000000000000000000000000000000000000000000000000000000014612b7057807f340000000000000000000000000000000000000000000000000000000000000014612b6757807f350000000000000000000000000000000000000000000000000000000000000014612b5e57807f360000000000000000000000000000000000000000000000000000000000000014612b5557807f370000000000000000000000000000000000000000000000000000000000000014612b4c57807f380000000000000000000000000000000000000000000000000000000000000014612b43577f390000000000000000000000000000000000000000000000000000000000000014612b3b57600a905b600a8214612af757600191612aef91611b69565b910190612371565b606460405162461bcd60e51b815260206004820152601c60248201527f41534349492073796d626f6c206973206e6f742061206e756d626572000000006044820152fd5b600990612adb565b50600890612adb565b50600790612adb565b50600690612adb565b50600590612adb565b50600490612adb565b50600390612adb565b508390612adb565b50600190612adb565b50600090612adb565b601303612e5f576004906000805b838110612baf575090612396565b90600a810290808204600a1490151715612e4a578251821015612e35577fff000000000000000000000000000000000000000000000000000000000000006020838501015116807f300000000000000000000000000000000000000000000000000000000000000014612e2c57807f310000000000000000000000000000000000000000000000000000000000000014612e2357807f320000000000000000000000000000000000000000000000000000000000000014612e1a57807f330000000000000000000000000000000000000000000000000000000000000014612e1157807f340000000000000000000000000000000000000000000000000000000000000014612e0957807f350000000000000000000000000000000000000000000000000000000000000014612e0057807f360000000000000000000000000000000000000000000000000000000000000014612df757807f370000000000000000000000000000000000000000000000000000000000000014612dee57807f380000000000000000000000000000000000000000000000000000000000000014612de5577f390000000000000000000000000000000000000000000000000000000000000014612ddd57600a905b600a8214612d9957600191612d9291611b69565b9101612ba1565b60648560206040519162461bcd60e51b8352820152601c60248201527f41534349492073796d626f6c206973206e6f742061206e756d626572000000006044820152fd5b600990612d7e565b50600890612d7e565b50600790612d7e565b50600690612d7e565b50600590612d7e565b508390612d7e565b50600390612d7e565b50600290612d7e565b50600190612d7e565b50600090612d7e565b603284634e487b7160e01b6000525260246000fd5b601184634e487b7160e01b6000525260246000fd5b608460405162461bcd60e51b815260206004820152602f60248201527f4f6e6c7920313320616e642031392062797465732061726520737570706f727460448201527f6564206461746520666f726d61747300000000000000000000000000000000006064820152fd5b919073ffffffffffffffffffffffffffffffffffffffff90602081519101201660408351146000146130ca5760206000612f19604083870151960151948360405192828480945193849201611913565b8101039060025afa156130225760005192602060006080604051878152601b8482015284604082015286606082015282805260015afa156130225773ffffffffffffffffffffffffffffffffffffffff60005116821415928361307c575b8361302e575b83612fd1575b505050612f8d5790565b606460405162461bcd60e51b815260206004820152601160248201527f496e76616c6964207369676e61747572650000000000000000000000000000006044820152fd5b602092935060009160809160405191878352601e868401526040830152606082015282805260015afa156130225773ffffffffffffffffffffffffffffffffffffffff600051161415388080612f83565b6040513d6000823e3d90fd5b9250602060006080604051878152601d8482015284604082015286606082015282805260015afa156130225773ffffffffffffffffffffffffffffffffffffffff6000511682141592612f7d565b9250602060006080604051878152601c8482015284604082015286606082015282805260015afa156130225773ffffffffffffffffffffffffffffffffffffffff6000511682141592612f77565b606460405162461bcd60e51b815260206004820152601860248201527f496e76616c6964207369676e6174757265206c656e67746800000000000000006044820152fd5b818110613119575050565b6000815560010161310e565b9190601f811161313457505050565b611ae0926000526020600020906020601f840160051c83019310613160575b601f0160051c019061310e565b9091508190613153565b9092919261323257825167ffffffffffffffff8111610a905761319181610d838454611a6d565b6020601f82116001146131d05781906131c19394956000926131c55750506000198260011b9260031b1c19161790565b9055565b015190503880610bfc565b601f1982169083600052806000209160005b81811061321a57509583600195969710613201575b505050811b019055565b015160001960f88460031b161c191690553880806131f7565b9192602060018192868b0151815501940192016131e2565b634e487b7160e01b600052600060045260246000fd5b60055490811580156132a5575b156132a1578160405160208184516132708183858901611913565b810160048152030190205568010000000000000000821015610a9057610375826001611ae0940160055560056121b0565b5050565b50604051815190602081818501936132be818387611913565b81016004815203019020541590816132d7575b50613255565b905060006005541561224b57600590526133107f036b6384b5eca791c62761152d0c79bb0604c104a5fb6f4eb0703f3154bb3db0611aa7565b6020815191012090825190201415386132d1565b6007548015801561336b575b156132a1578160005260066020528060406000205568010000000000000000811015610a90576105ce8160016131c1930160075560076121b0565b50816000526006602052604060002054158015613330575060006007541561224b57600790527fa66cc928b5edb82af9bd49922954155ab7b0942694bea4ce44661d9a8736c68854821415613330565b60095480158015613402575b156132a1578160005260086020528060406000205568010000000000000000811015610a90576105ce8160016131c1930160095560096121b0565b508160005260086020526040600020541580156133c7575060006009541561224b57600990527f6e1540171b6c0c960b71a7020d9f60077f6af931a8bbf590da0223dacf75c7af548214156133c7565b60009392905b81831061346457505050565b909193600a810290808204600a1490151715610651578151851015611bb6577fff000000000000000000000000000000000000000000000000000000000000006020868401015116807f3000000000000000000000000000000000000000000000000000000000000000146136a257807f31000000000000000000000000000000000000000000000000000000000000001461369957807f32000000000000000000000000000000000000000000000000000000000000001461369057807f33000000000000000000000000000000000000000000000000000000000000001461368757807f34000000000000000000000000000000000000000000000000000000000000001461367e57807f35000000000000000000000000000000000000000000000000000000000000001461367557807f36000000000000000000000000000000000000000000000000000000000000001461366c57807f37000000000000000000000000000000000000000000000000000000000000001461366357807f38000000000000000000000000000000000000000000000000000000000000001461365a577f39000000000000000000000000000000000000000000000000000000000000001461365257600a905b600a8214612af75760019161364991611b69565b94019190613458565b600990613635565b50600890613635565b50600790613635565b50600690613635565b50600590613635565b50600490613635565b50600390613635565b50600290613635565b50600190613635565b50600090613635565b90600282036136cd576136be9150613719565b156136c857601d90565b601c90565b506004811490811561370e575b8115613703575b81156136f8575b50156136f357601e90565b601f90565b600b915014386136e8565b6009811491506136e1565b6006811491506136da565b60038116159081613739575b811561372f575090565b6101909150061590565b606481061515915061372556fea2646970667358221220675594aac3d2cb1f8e86c4c793a42e428cff0e614b0e19d3284a834661bd858164736f6c634300081e0033",
  "linkReferences": {},
  "deployedLinkReferences": {}
}