{
  "_format": "hh-sol-artifact-1",
  "contractName": "SimpleWriteAccessController",
  "sourceName": "contract/SimpleWriteAccessController.sol",
  "abi": [
    {
      "inputs": [],
      "stateMutability": "nonpayable",
      "type": "constructor"
    },
    {
      "anonymous": false,
      "inputs": [
        {
          "indexed": false,
          "internalType": "address",
          "name": "user",
          "type": "address"
        }
      ],
      "name": "AddedAccess",
      "type": "event"
    },
    {
      "anonymous": false,
      "inputs": [],
      "name": "CheckAccessDisabled",
      "type": "event"
    },
    {
      "anonymous": false,
      "inputs": [],
      "name": "CheckAccessEnabled",
      "type": "event"
    },
    {
      "anonymous": false,
      "inputs": [
        {
          "indexed": true,
          "internalType": "address",
          "name": "from",
          "type": "address"
        },
        {
          "indexed": true,
          "internalType": "address",
          "name": "to",
          "type": "address"
        }
      ],
      "name": "OwnershipTransferRequested",
      "type": "event"
    },
    {
      "anonymous": false,
      "inputs": [
        {
          "indexed": true,
          "internalType": "address",
          "name": "from",
          "type": "address"
        },
        {
          "indexed": true,
          "internalType": "address",
          "name": "to",
          "type": "address"
        }
      ],
      "name": "OwnershipTransferred",
      "type": "event"
    },
    {
      "anonymous": false,
      "inputs": [
        {
          "indexed": false,
          "internalType": "address",
          "name": "user",
          "type": "address"
        }
      ],
      "name": "RemovedAccess",
      "type": "event"
    },
    {
      "inputs": [],
      "name": "acceptOwnership",
      "outputs": [],
      "stateMutability": "nonpayable",
      "type": "function"
    },
    {
      "inputs": [
        {
          "internalType": "address",
          "name": "_user",
          "type": "address"
        }
      ],
      "name": "addAccess",
      "outputs": [],
      "stateMutability": "nonpayable",
      "type": "function"
    },
    {
      "inputs": [],
      "name": "checkEnabled",
      "outputs": [
        {
          "internalType": "bool",
          "name": "",
          "type": "bool"
        }
      ],
      "stateMutability": "view",
      "type": "function"
    },
    {
      "inputs": [],
      "name": "disableAccessCheck",
      "outputs": [],
      "stateMutability": "nonpayable",
      "type": "function"
    },
    {
      "inputs": [],
      "name": "enableAccessCheck",
      "outputs": [],
      "stateMutability": "nonpayable",
      "type": "function"
    },
    {
      "inputs": [
        {
          "internalType": "address",
          "name": "_user",
          "type": "address"
        },
        {
          "internalType": "bytes",
          "name": "",
          "type": "bytes"
        }
      ],
      "name": "hasAccess",
      "outputs": [
        {
          "internalType": "bool",
          "name": "",
          "type": "bool"
        }
      ],
      "stateMutability": "view",
      "type": "function"
    },
    {
      "inputs": [],
      "name": "owner",
      "outputs": [
        {
          "internalType": "address payable",
          "name": "",
          "type": "address"
        }
      ],
      "stateMutability": "view",
      "type": "function"
    },
    {
      "inputs": [
        {
          "internalType": "address",
          "name": "_user",
          "type": "address"
        }
      ],
      "name": "removeAccess",
      "outputs": [],
      "stateMutability": "nonpayable",
      "type": "function"
    },
    {
      "inputs": [
        {
          "internalType": "address",
          "name": "_to",
          "type": "address"
        }
      ],
      "name": "transferOwnership",
      "outputs": [],
      "stateMutability": "nonpayable",
      "type": "function"
    }
  ],
  "bytecode": "0x60808060405234603a57600080546001600160a01b031916331790556001805460ff60a01b1916600160a01b17905561070390816100408239f35b600080fdfe6080604052600436101561001257600080fd5b60003560e01c80630a756983146105b55780636b14daf81461048757806379ba5097146103885780638038e4a1146102e05780638823da6c1461022a5780638da5cb5b146101f6578063a118f2491461013c578063dc7f0124146101165763f2fde38b1461007f57600080fd5b3461011157602060031936011261011157610098610645565b73ffffffffffffffffffffffffffffffffffffffff8060005416916100be833314610668565b1690817fffffffffffffffffffffffff000000000000000000000000000000000000000060015416176001557fed8889f560326eb138920d842192f0eb3dd22b4f139c87a2c57538e05bae1278600080a3005b600080fd5b3461011157600060031936011261011157602060ff60015460a01c166040519015158152f35b346101115760206003193601126101115773ffffffffffffffffffffffffffffffffffffffff61016a610645565b61017982600054163314610668565b1680600052600260205260ff604060002054161561019357005b6020817f87286ad1f399c8e82bf0c4ef4fcdc570ea2e1e92176e5c848b6413545b885db49260005260028252604060002060017fffffffffffffffffffffffffffffffffffffffffffffffffffffffffffffff00825416179055604051908152a1005b3461011157600060031936011261011157602073ffffffffffffffffffffffffffffffffffffffff60005416604051908152f35b346101115760206003193601126101115773ffffffffffffffffffffffffffffffffffffffff610258610645565b61026782600054163314610668565b1680600052600260205260ff6040600020541661028057005b6020817f3d68a6fce901d20453d1a7aa06bf3950302a735948037deb182a8db66df2a0d1926000526002825260406000207fffffffffffffffffffffffffffffffffffffffffffffffffffffffffffffff008154169055604051908152a1005b346101115760006003193601126101115761031473ffffffffffffffffffffffffffffffffffffffff600054163314610668565b60015460ff8160a01c161561032557005b7fffffffffffffffffffffff00ffffffffffffffffffffffffffffffffffffffff1674010000000000000000000000000000000000000000176001557faebf329500988c6488a0074e5a0a9ff304561fc5c6fc877aeb1d59c8282c3480600080a1005b346101115760006003193601126101115760015473ffffffffffffffffffffffffffffffffffffffff81163303610429577fffffffffffffffffffffffff00000000000000000000000000000000000000006000549133828416176000551660015573ffffffffffffffffffffffffffffffffffffffff3391167f8be0079c531659141344cd1fd0a4f28419497f9722a3daafe3b4186f6b6457e0600080a3005b60646040517f08c379a000000000000000000000000000000000000000000000000000000000815260206004820152601660248201527f4d7573742062652070726f706f736564206f776e6572000000000000000000006044820152fd5b34610111576040600319360112610111576104a0610645565b6024359067ffffffffffffffff821161011157366023830112156101115781600401359167ffffffffffffffff831161058657604051907fffffffffffffffffffffffffffffffffffffffffffffffffffffffffffffffe0603f81601f8701160116820182811067ffffffffffffffff821117610586576040528382523660248583010111610111578360009273ffffffffffffffffffffffffffffffffffffffff956024602094018483013701015216600052600260205260ff604060002054168015610576575b6020906040519015158152f35b5060015460a01c60ff1615610569565b7f4e487b7100000000000000000000000000000000000000000000000000000000600052604160045260246000fd5b34610111576000600319360112610111576105e973ffffffffffffffffffffffffffffffffffffffff600054163314610668565b60015460ff8160a01c166105f957005b7fffffffffffffffffffffff00ffffffffffffffffffffffffffffffffffffffff166001557f3be8a977a014527b50ae38adda80b56911c267328965c98ddc385d248f539638600080a1005b6004359073ffffffffffffffffffffffffffffffffffffffff8216820361011157565b1561066f57565b60646040517f08c379a000000000000000000000000000000000000000000000000000000000815260206004820152601660248201527f4f6e6c792063616c6c61626c65206279206f776e6572000000000000000000006044820152fdfea264697066735822122020ea98773d2e12d3e6310e9596fa464cb8616ae38b73a8fce563123294de711f64736f6c634300081e0033",
  "linkReferences": {},
  "deployedLinkReferences": {}
}